:100000000C942A000C94D1010C943C000C943C00FC
:100010000C943C000C943C000C9480020C943C002A
:100020000C943C000C943C000C9459020C94320249
:100030000C943C000C943C000C943C000C943C0050
:100040000C943C000C943C000C943C000C943C0040
:100050000C943C0011241FBECFE5D8E0DEBFCDBF1D
:1000600020E0A0E6B0E001C01D92A836B207E1F79B
:100070000E943E000C94A7020C94000080E00E94B5
:10008000F80161E082E10E944E00C0E08C2F0E94E6
:100090002D02C09582E10E94C501F8CF883000F59D
:1000A00061110EC04AB321E030E0B90102C0660F11
:1000B000771F8A95E2F7CB01809584238ABB089548
:1000C000613009F075C04AB321E030E0B90102C0E7
:1000D000660F771F8A95E2F7CB01842B8ABB0895C0
:1000E00098EF980F983000F561110EC047B321E0EA
:1000F00030E0B90102C0660F771F9A95E2F7CB0195
:100100008095842387BB0895613009F051C047B3BF
:1001100021E030E0B90102C0660F771F9A95E2F73F
:10012000CB01842B87BB089590EF980F9830F8F49B
:1001300061110EC044B321E030E0B90102C0660F86
:10014000771F9A95E2F7CB018095842384BB0895AD
:10015000613071F544B321E030E0B90102C0660FAF
:10016000771F9A95E2F7CB01842B84BB08958851C1
:100170008830F0F461110EC041B321E030E0B901E4
:1001800002C0660F771F8A95E2F7CB018095842322
:1001900081BB0895613061F441B321E030E0B901E1
:1001A00002C0660F771F8A95E2F7CB01842B81BBD3
:1001B0000895883000F561110EC04BB321E030E0A6
:1001C000B90102C0660F771F8A95E2F7CB018095CF
:1001D00084238BBB0895613009F075C04BB321E0D7
:1001E00030E0B90102C0660F771F8A95E2F7CB01B4
:1001F000842B8BBB089598EF980F983000F5611110
:100200000EC048B321E030E0B90102C0660F771F8D
:100210009A95E2F7CB018095842388BB08956130DD
:1002200009F051C048B321E030E0B90102C0660FC7
:10023000771F9A95E2F7CB01842B88BB089590EF46
:10024000980F9830F8F461110EC045B321E030E00A
:10025000B90102C0660F771F9A95E2F7CB0180952E
:10026000842385BB0895613071F545B321E030E00A
:10027000B90102C0660F771F9A95E2F7CB01842B74
:1002800085BB089588518830F0F461110EC042B3E7
:1002900021E030E0B90102C0660F771F8A95E2F7CE
:1002A000CB018095842382BB0895613061F442B311
:1002B00021E030E0B90102C0660F771F8A95E2F7AE
:1002C000CB01842B82BB08958830B0F499B321E030
:1002D00030E0A901082E02C0440F551F0A94E2F72E
:1002E000292F30E024233523A90102C055954795D5
:1002F0008A95E2F7CA01089548EF480F4830A0F404
:1003000056B381E090E09C01042E02C0220F331FFF
:100310000A94E2F7852F90E08223932302C09595FB
:1003200087954A95E2F7089540EF480F4830A0F4CA
:1003300053B381E090E09C01042E02C0220F331FD2
:100340000A94E2F7852F90E08223932302C09595CB
:1003500087954A95E2F7089548EE480F4830A0F493
:1003600050B381E090E09C01042E02C0220F331FA5
:100370000A94E2F7852F90E08223932302C095959B
:1003800087954A95E2F708950895CF93C82F0E9464
:10039000640161E0811160E08C2F0E94D900CF914F
:1003A00008951F920F920FB60F9211242F933F932F
:1003B0004F935F936F937F938F939F93AF93BF936D
:1003C000EF93FF93E0916000F09161000995FF9138
:1003D000EF91BF91AF919F918F917F916F915F91BD
:1003E0004F913F912F910F900FBE0F901F90189536
:1003F0008130D1F48DB180618DB961E08DE00E94D2
:100400004E0061E08FE00E944E0060E08EE00E94AE
:100410004E0061E08CE00E944E008DB181608DB98C
:100420008DB182608DB915C0811113C08DB18F7EE1
:100430008DB960E08DE00E944E0060E08FE00E9488
:100440004E0061E08EE00E944E0060E08CE00E9471
:100450004E008DB180648DB908958FB9779BFECF22
:100460008FB108951F920F920FB60F9211242F9300
:100470003F934F935F936F937F938F939F93AF932C
:10048000BF93EF93FF93E0916200F09163000995B1
:10049000FF91EF91BF91AF919F918F917F916F915C
:1004A0005F914F913F912F910F900FBE0F901F9032
:1004B00018951F920F920FB60F9211242F933F930E
:1004C0004F935F936F937F938F939F93AF93BF935C
:1004D000EF93FF93E0916400F09165000995FF911F
:1004E000EF91BF91AF919F918F917F916F915F91AC
:1004F0004F913F912F910F900FBE0F901F90189525
:100500001F920F920FB60F9211242F933F934F9388
:100510005F936F937F938F939F93AF93BF93EF936B
:10052000FF93E0916600F09167000995FF91EF91CC
:10053000BF91AF919F918F917F916F915F914F91FB
:100540003F912F910F900FBE0F901F901895F89428
:02055000FFCFDB
:00000001FF
