:100000000C9434000C943E000C943E000C943E0082
:100010000C943E000C943E000C943E000C943E0068
:100020000C943E000C943E000C943E000C943E0058
:100030000C943E000C943E000C943E000C943E0048
:100040000C943E000C943E000C943E000C943E0038
:100050000C943E008F00AC00C900E60003012001B3
:100060003D015A017701940111241FBECFE5D8E06C
:10007000DEBFCDBF0E9440000C9407030C9400002B
:100080000E94450080E090E0089561E081E10E94D7
:10009000B10161E082E10E94B10161E083E10E946F
:1000A000B10161E084E10E94B10161E085E10E945B
:1000B000B10161E086E10E94B10161E087E10E9447
:1000C000B10160E082E00E94B10182E00E94FD0285
:1000D00060E08EE00E94B1018EE00E94FD02C0E06F
:1000E00082E00E94C70281110AC0CF5F2FEF85EA2C
:1000F0009EE0215080409040E1F700C000008EE07B
:100100000E94C702811101C0C0E08C2F90E08A30AC
:10011000910530F7FC01E65DFF4F0C94010360E0B0
:1001200081E10E943C0260E082E10E943C0260E0CA
:1001300083E10E943C0260E084E10E943C0260E0B6
:1001400085E10E943C0260E086E10E943C0260E0A2
:1001500087E10E943C02C4CF60E081E10E943C0242
:1001600061E082E10E943C0261E083E10E943C0286
:1001700060E084E10E943C0260E085E10E943C0274
:1001800060E086E10E943C0260E087E10E943C0260
:10019000A7CF61E081E10E943C0261E082E10E9420
:1001A0003C0260E083E10E943C0261E084E10E9445
:1001B0003C0261E085E10E943C0260E086E10E9431
:1001C0003C0261E087E10E943C028ACF61E081E16C
:1001D0000E943C0261E082E10E943C0261E083E116
:1001E0000E943C0261E084E10E943C0260E085E103
:1001F0000E943C0260E086E10E943C0261E087E1EF
:100200000E943C026DCF60E081E10E943C0261E00F
:1002100082E10E943C0261E083E10E943C0260E0D6
:1002200084E10E943C0260E085E10E943C0261E0C2
:1002300086E10E943C0261E087E10E943C0250CFCF
:1002400061E081E10E943C0260E082E10E943C02A8
:1002500061E083E10E943C0261E084E10E943C0293
:1002600060E085E10E943C0261E086E10E943C0280
:1002700061E087E10E943C0233CF61E081E10E94AE
:100280003C0260E082E10E943C0261E083E10E9466
:100290003C0261E084E10E943C0261E085E10E9451
:1002A0003C0261E086E10E943C0261E087E10E943D
:1002B0003C0216CF61E081E10E943C0261E082E1F4
:1002C0000E943C0261E083E10E943C0260E084E124
:1002D0000E943C0260E085E10E943C0260E086E111
:1002E0000E943C0260E087E10E943C02F9CE61E09E
:1002F00081E10E943C0261E082E10E943C0261E0F7
:1003000083E10E943C0261E084E10E943C0261E0E2
:1003100085E10E943C0261E086E10E943C0261E0CE
:1003200087E10E943C02DCCE61E081E10E943C0258
:1003300061E082E10E943C0261E083E10E943C02B4
:1003400061E084E10E943C0260E085E10E943C02A1
:1003500061E086E10E943C0261E087E10E943C028C
:10036000BFCE883000F561110EC04AB321E030E005
:10037000B90102C0660F771F8A95E2F7CB0180951D
:1003800084238ABB0895613009F075C04AB321E027
:1003900030E0B90102C0660F771F8A95E2F7CB0102
:1003A000842B8ABB089598EF980F983000F561115F
:1003B0000EC047B321E030E0B90102C0660F771FDD
:1003C0009A95E2F7CB018095842387BB089561302D
:1003D00009F051C047B321E030E0B90102C0660F17
:1003E000771F9A95E2F7CB01842B87BB089590EF96
:1003F000980F9830F8F461110EC044B321E030E05A
:10040000B90102C0660F771F9A95E2F7CB0180957C
:10041000842384BB0895613071F544B321E030E05A
:10042000B90102C0660F771F9A95E2F7CB01842BC2
:1004300084BB089588518830F0F461110EC044B334
:1004400021E030E0B90102C0660F771F8A95E2F71C
:10045000CB018095842384BB0895613061F444B35B
:1004600021E030E0B90102C0660F771F8A95E2F7FC
:10047000CB01842B84BB0895883000F561110EC038
:100480004BB321E030E0B90102C0660F771F8A95B7
:10049000E2F7CB01809584238BBB0895613009F08E
:1004A00075C04BB321E030E0B90102C0660F771F81
:1004B0008A95E2F7CB01842B8BBB089598EF980FB8
:1004C000983000F561110EC048B321E030E0B90169
:1004D00002C0660F771F9A95E2F7CB0180958423BF
:1004E00088BB0895613009F051C048B321E030E085
:1004F000B90102C0660F771F9A95E2F7CB01842BF2
:1005000088BB089590EF980F9830F8F461110EC0F1
:1005100045B321E030E0B90102C0660F771F9A951C
:10052000E2F7CB018095842385BB0895613071F596
:1005300045B321E030E0B90102C0660F771F9A95FC
:10054000E2F7CB01842B85BB089588518830F0F405
:1005500061110EC042B321E030E0B90102C0660F64
:10056000771F8A95E2F7CB018095842382BB08959B
:10057000613061F442B321E030E0B90102C0660F9E
:10058000771F8A95E2F7CB01842B82BB08958830D0
:1005900058F429B330E0A90102C0559547958A95D2
:1005A000E2F7CA018170089528EF280F283048F437
:1005B00086B390E002C0959587952A95E2F7817001
:1005C000089520EF280F283048F483B390E002C04C
:1005D000959587952A95E2F78170089528EE280F62
:1005E000283050F490B3892F90E002C095958795FC
:1005F0002A95E2F781700895089561E00E943C0217
:100600000895EE0FFF1F0590F491E02D0994F894E2
:02061000FFCF1A
:00000001FF
