:100000000C942A000C943B010C9462010C9489011D
:100010000C943C000C943C000C943C000C943C0070
:100020000C943C000C943C000C9432020C940B0297
:100030000C943C000C943C000C943C000C943C0050
:100040000C943C000C943C000C943C000C943C0040
:100050000C943C0011241FBECFE5D8E0DEBFCDBF1D
:1000600020E0A0E6B0E001C01D92AA36B207E1F799
:100070000E943E000C9459020C9400000E94430020
:1000800080E090E0089561E08BE00E947A0060E0FB
:100090008EE10E947A0060E088E10E947A000E946E
:1000A000B0010E94B40184E00E94C101C0E0D0E030
:1000B0008EE10E940501813071F46496CF3FD10535
:1000C00010F0CFEFD0E08C2F0E9409028EE10E9449
:1000D00005018130D9F388E10E940501813041F7A3
:1000E00064978C2F0E94090288E10E9405018130EB
:1000F000D9F3DECF883000F561110EC04AB321E09C
:1001000030E0B90102C0660F771F8A95E2F7CB0194
:10011000809584238ABB0895613009F075C04AB385
:1001200021E030E0B90102C0660F771F8A95E2F73F
:10013000CB01842B8ABB089598EF980F983000F577
:1001400061110EC047B321E030E0B90102C0660F73
:10015000771F9A95E2F7CB018095842387BB08959A
:10016000613009F051C047B321E030E0B90102C06D
:10017000660F771F9A95E2F7CB01842B87BB089512
:1001800090EF980F9830F8F461110EC044B321E05D
:1001900030E0B90102C0660F771F9A95E2F7CB01F4
:1001A0008095842384BB0895613071F544B321E0C8
:1001B00030E0B90102C0660F771F9A95E2F7CB01D4
:1001C000842B84BB089588518830F0F461110EC0EF
:1001D00044B321E030E0B90102C0660F771F8A9571
:1001E000E2F7CB018095842384BB0895613061F4EC
:1001F00044B321E030E0B90102C0660F771F8A9551
:10020000E2F7CB01842B84BB0895883058F429B3DE
:1002100030E0A90102C0559547958A95E2F7CA01D9
:100220008170089528EF280F283048F486B390E0B5
:1002300002C0959587952A95E2F78170089520EF81
:10024000280F283048F483B390E002C09595879535
:100250002A95E2F78170089528EE280F283050F48F
:1002600090B3892F90E002C0959587952A95E2F783
:100270008170089508951F920F920FB60F92112466
:100280002F933F934F935F936F937F938F939F939E
:10029000AF93BF93EF93FF93E0916400F0916500FB
:1002A0000995FF91EF91BF91AF919F918F917F91B0
:1002B0006F915F914F913F912F910F900FBE0F90D3
:1002C0001F9018951F920F920FB60F9211242F9323
:1002D0003F934F935F936F937F938F939F93AF93CE
:1002E000BF93EF93FF93E0916000F0916100099557
:1002F000FF91EF91BF91AF919F918F917F916F91FE
:100300005F914F913F912F910F900FBE0F901F90D3
:1003100018951F920F920FB60F9211242F933F93AF
:100320004F935F936F937F938F939F93AF93BF93FD
:10033000EF93FF93E0916200F09163000995FF91C4
:10034000EF91BF91AF919F918F917F916F915F914D
:100350004F913F912F910F900FBE0F901F901895C6
:100360008FB780688FBF089583B7806483BF83B7DA
:10037000886083BF83B78F7E83BF83B7806283BF6C
:10038000089581110AC083B7816083BF83B78260FB
:1003900083BF83B7846083BF0895813051F483B7EE
:1003A0008E7F83BF83B7826083BF83B7846083BF40
:1003B0000895823051F483B7816083BF83B78D7F06
:1003C00083BF83B78B7F83BF0895833051F483B796
:1003D0008E7F83BF83B7826083BF83B78B7F83BFEA
:1003E0000895843051F483B7816083BF83B78260FE
:1003F00083BF83B78B7F83BF0895853049F483B76C
:100400008E7F83BF83B78D7F83BF83B7846083BFB5
:1004100008958CBF08951F920F920FB60F9211246A
:100420002F933F934F935F936F937F938F939F93FC
:10043000AF93BF93EF93FF93E0916800F091690051
:100440000995FF91EF91BF91AF919F918F917F910E
:100450006F915F914F913F912F910F900FBE0F9031
:100460001F9018951F920F920FB60F9211242F9381
:100470003F934F935F936F937F938F939F93AF932C
:10048000BF93EF93FF93E0916600F09167000995A9
:10049000FF91EF91BF91AF919F918F917F916F915C
:1004A0005F914F913F912F910F900FBE0F901F9032
:0604B0001895F894FFCF3F
:00000001FF
