:100000000C942A000C9434000C9434000C943400AA
:100010000C9434000C9434000C9434000C94340090
:100020000C9434000C9434000C9434000C94340080
:100030000C9434000C9434000C9434000C94340070
:100040000C9434000C9434000C9434000C94340060
:100050000C94340011241FBECFE5D8E0DEBFCDBF25
:100060000E9436000C94A8010C94000061E082E12B
:100070000E94580060E08AE00E9458008AE00E94D6
:10008000A4018AE00E946E0181110DC061E082E14D
:100090000E94E3002FEF89E698E1215080409040D4
:1000A000E1F700C0000060E082E10E94E300E9CFD8
:1000B000883000F561110EC04AB321E030E0B9018B
:1000C00002C0660F771F8A95E2F7CB0180958423E3
:1000D0008ABB0895613009F075C04AB321E030E071
:1000E000B90102C0660F771F8A95E2F7CB01842B16
:1000F0008ABB089598EF980F983000F561110EC0F3
:1001000047B321E030E0B90102C0660F771F9A952E
:10011000E2F7CB018095842387BB0895613009F015
:1001200051C047B321E030E0B90102C0660F771F2C
:100130009A95E2F7CB01842B87BB089590EF980F37
:100140009830F8F461110EC044B321E030E0B901F9
:1001500002C0660F771F9A95E2F7CB018095842342
:1001600084BB0895613071F544B321E030E0B901FA
:1001700002C0660F771F9A95E2F7CB01842B84BBF0
:10018000089588518830F0F461110EC044B321E025
:1001900030E0B90102C0660F771F8A95E2F7CB0104
:1001A0008095842384BB0895613061F444B321E0D9
:1001B00030E0B90102C0660F771F8A95E2F7CB01E4
:1001C000842B84BB0895883000F561110EC04BB3B9
:1001D00021E030E0B90102C0660F771F8A95E2F78F
:1001E000CB01809584238BBB0895613009F075C0E5
:1001F0004BB321E030E0B90102C0660F771F8A954A
:10020000E2F7CB01842B8BBB089598EF980F9830C1
:1002100000F561110EC048B321E030E0B90102C021
:10022000660F771F9A95E2F7CB018095842388BBF0
:100230000895613009F051C048B321E030E0B901C0
:1002400002C0660F771F9A95E2F7CB01842B88BB1B
:10025000089590EF980F9830F8F461110EC045B3EF
:1002600021E030E0B90102C0660F771F9A95E2F7EE
:10027000CB018095842385BB0895613071F545B32A
:1002800021E030E0B90102C0660F771F9A95E2F7CE
:10029000CB01842B85BB089588518830F0F461111F
:1002A0000EC042B321E030E0B90102C0660F771FF3
:1002B0008A95E2F7CB018095842382BB0895613053
:1002C00061F442B321E030E0B90102C0660F771F4C
:1002D0008A95E2F7CB01842B82BB0895883058F4CD
:1002E00029B330E0A90102C0559547958A95E2F7F8
:1002F000CA018170089528EF280F283048F486B38A
:1003000090E002C0959587952A95E2F7817008954F
:1003100020EF280F283048F483B390E002C0959571
:1003200087952A95E2F78170089528EE280F2830E6
:1003300050F490B3892F90E002C0959587952A9547
:10034000E2F781700895089561E00E94E300089546
:04035000F894FFCF4F
:00000001FF
