:100000000C942A000C947F020C94A6020C94CD024E
:100010000C9447000C9447000C9447000C94470044
:100020000C9447000C9447000C9447000C944E032A
:100030000C9447000C9447000C9447000C94470024
:100040000C9447000C9447000C9447000C94470014
:100050000C94470011241FBECFE5D8E0DEBFCDBF12
:1000600010E0A0E6B0E0EEEEF6E002C005900D92E2
:10007000AA36B107D9F720E0AAE6B0E001C01D9288
:10008000A237B207E1F70E9449000C9475030C9463
:1000900000000E944E0080E090E0089561E082E15F
:1000A0000E94690161E083E10E9469010E940B01E5
:1000B0000E94F4020E94F80280E00E94020380E0A5
:1000C0000E944A030E944C038330E1F70E945201D0
:1000D00080E690E00E94560180E00E944A03F2CF41
:1000E000811109C060E08AE00E94F40161E089E0CA
:1000F0000E94F4010895813041F460E08AE00E949A
:10010000F40160E089E00E94F401089561E08BE071
:100110000E94F4018FE99FE00197F1F700C0000011
:1001200060E08BE00E94F4010895CF93C82F80E037
:100130000E947000C4FB662760F984E00E94F4010D
:10014000C5FB662760F985E00E94F401C6FB6627BF
:1001500060F986E00E94F4016C2F661F6627661F17
:1001600087E00E94F4010E9486006C2F617084E099
:100170000E94F401C1FB662760F985E00E94F4014A
:10018000C2FB662760F986E00E94F401C3FB662784
:1001900060F987E00E94F4010E948600CF910895E3
:1001A000CF93C82F81E00E947000C4FB662760F9DE
:1001B00084E00E94F401C5FB662760F985E00E9497
:1001C000F401C6FB662760F986E00E94F4016C2FFB
:1001D000661F6627661F87E00E94F4010E94860062
:1001E0006C2F617084E00E94F401C1FB662760F906
:1001F00085E00E94F401C2FB662760F986E00E9458
:10020000F401C3FB662760F987E00E94F4010E94B5
:100210008600CF91089561E084E00E94690161E069
:1002200085E00E94690161E086E00E94690161E069
:1002300087E00E94690161E08BE00E94690161E052
:100240008AE00E94690161E089E00E94690182E020
:100250000E94D0002FEF86E791E02150804090402F
:10026000E1F700C0000088E20E94D0008FE99FE023
:100270000197F1F700C000008FE00E94D0008FE9E5
:100280009FE00197F1F700C0000081E00E94D000DC
:100290008FE39FE10197F1F700C0000086E00E9424
:1002A000D000089581E00E94D00008950F931F931D
:1002B000CF938C01C0E003C00E949500CF5FF8018E
:1002C000EC0FF11D80818111F7CFCF911F910F911C
:1002D0000895883000F561110EC04AB321E030E086
:1002E000B90102C0660F771F8A95E2F7CB018095AE
:1002F00084238ABB0895613009F075C04AB321E0B8
:1003000030E0B90102C0660F771F8A95E2F7CB0192
:10031000842B8ABB089598EF980F983000F56111EF
:100320000EC047B321E030E0B90102C0660F771F6D
:100330009A95E2F7CB018095842387BB08956130BD
:1003400009F051C047B321E030E0B90102C0660FA7
:10035000771F9A95E2F7CB01842B87BB089590EF26
:10036000980F9830F8F461110EC044B321E030E0EA
:10037000B90102C0660F771F9A95E2F7CB0180950D
:10038000842384BB0895613071F544B321E030E0EB
:10039000B90102C0660F771F9A95E2F7CB01842B53
:1003A00084BB089588518830F0F461110EC044B3C5
:1003B00021E030E0B90102C0660F771F8A95E2F7AD
:1003C000CB018095842384BB0895613061F444B3EC
:1003D00021E030E0B90102C0660F771F8A95E2F78D
:1003E000CB01842B84BB0895883000F561110EC0C9
:1003F0004BB321E030E0B90102C0660F771F8A9548
:10040000E2F7CB01809584238BBB0895613009F01E
:1004100075C04BB321E030E0B90102C0660F771F11
:100420008A95E2F7CB01842B8BBB089598EF980F48
:10043000983000F561110EC048B321E030E0B901F9
:1004400002C0660F771F9A95E2F7CB01809584234F
:1004500088BB0895613009F051C048B321E030E015
:10046000B90102C0660F771F9A95E2F7CB01842B82
:1004700088BB089590EF980F9830F8F461110EC082
:1004800045B321E030E0B90102C0660F771F9A95AD
:10049000E2F7CB018095842385BB0895613071F527
:1004A00045B321E030E0B90102C0660F771F9A958D
:1004B000E2F7CB01842B85BB089588518830F0F496
:1004C00061110EC042B321E030E0B90102C0660FF5
:1004D000771F8A95E2F7CB018095842382BB08952C
:1004E000613061F442B321E030E0B90102C0660F2F
:1004F000771F8A95E2F7CB01842B82BB08951F9268
:100500000F920FB60F9211242F933F934F935F9347
:100510006F937F938F939F93AF93BF93EF93FF93CB
:10052000E0916E00F0916F000995FF91EF91BF91FE
:10053000AF919F918F917F916F915F914F913F917B
:100540002F910F900FBE0F901F9018951F920F9232
:100550000FB60F9211242F933F934F935F936F9396
:100560007F938F939F93AF93BF93EF93FF93E0910C
:100570006A00F0916B000995FF91EF91BF91AF91E7
:100580009F918F917F916F915F914F913F912F91AB
:100590000F900FBE0F901F9018951F920F920FB6DD
:1005A0000F9211242F933F934F935F936F937F93F9
:1005B0008F939F93AF93BF93EF93FF93E0916C0062
:1005C000F0916D000995FF91EF91BF91AF919F91CF
:1005D0008F917F916F915F914F913F912F910F90EC
:1005E0000FBE0F901F9018958FB780688FBF08952A
:1005F00083B78F7B83BF83B7877F83BF89B78160D2
:1006000089BF089581110AC083B78E7F83BF83B7E6
:10061000826083BF83B7846083BF0895813051F4C3
:1006200083B7816083BF83B7826083BF83B78460F1
:1006300083BF0895823051F483B7816083BF83B74D
:100640008D7F83BF83B78B7F83BF0895833051F441
:1006500083B78E7F83BF83B7826083BF83B78B7F6F
:1006600083BF0895843051F483B7816083BF83B71B
:10067000826083BF83B78B7F83BF0895853049F441
:1006800083B78E7F83BF83B78D7F83BF83B784603B
:1006900083BF089582BF089582B708951F920F9275
:1006A0000FB60F9211242F933F934F935F936F9345
:1006B0007F938F939F93AF93BF93EF93FF93E091BB
:1006C0007000F09171000995FF91EF91BF91AF918A
:1006D0009F918F917F916F915F914F913F912F915A
:0E06E0000F900FBE0F901F901895F894FFCF4B
:0A06EE00436F6D706C6574650000C9
:00000001FF
