:100000000C942A000C94E6040C940D050C94340511
:100010000C9447000C9447000C94B5050C944700D1
:100020000C9447000C9447000C948E050C946705C3
:100030000C9447000C940D060C9447000C94470058
:100040000C9447000C9447000C9447000C94470014
:100050000C94470011241FBECFE5D8E0DEBFCDBF12
:1000600010E0A0E6B0E0ECEBFCE002C005900D92E1
:10007000A837B107D9F720E0A8E7B0E001C01D928A
:10008000A638B207E1F70E9449000C945C060C9474
:1000900000000E944E0080E090E00895CF93DF932F
:1000A00000D000D01F92CDB7DEB70E94DC050E94C1
:1000B000EC020E9467010E94100110E000E0B12CE8
:1000C000D12CC12C19C02FEF83ED90E3215080403B
:1000D0009040E1F700C00000612F70E0CE0105966E
:1000E0000E9436018D818F3F19F0DD24D39401C029
:1000F000D12C1F5F01C000E0143028F30E940206DB
:10010000E82E0E949401F82E28E7E21202C082171E
:1001100019F10E9494018837E1F7F81669F08F2DE4
:1001200090E0C0970E944A03E1E0F0E0EC0FFD1F71
:10013000E00FF11DF0820FC098E7E91661F08E2DF7
:1001400090E0C0970E944A03E1E0F0E0EC0FFD1F51
:10015000E00FF11DE0820F5F043071F6DD20B9F091
:100160001BC02FEF83ED90E3215080409040E1F7DA
:1001700000C00000612F70E0E1E0F0E0EC0FFD1F37
:10018000E60FF71F80810E9414011F5F01C010E07D
:10019000143038F3BB24B39421E0D21224C020C021
:1001A0008FEF93ED20E3815090402040E1F700C0B5
:1001B0000000E12EF12CB701CE0105960E94360118
:1001C000E1E0F0E0EC0FFD1FEE0DFF1D90818D8151
:1001D000981303C0CC24C39401C0C12C1F5F01C07D
:1001E00010E01430E8F2B11086CF81E0C8120CC0E4
:1001F0000E94330380E690E00E94370380E690E09F
:100200000E94EF0500E078CF0E94330388E690E07B
:100210000E94370388E690E00E94EF0500E06CCF73
:1002200081E00E945B05089594EA96BF06B607FE3A
:10023000FDCF9B01220F232F221F330B31952E7FE1
:10024000206A23B994E896BF06B607FEFDCF63B9CE
:1002500094E896BF06B607FEFDCF83B984E886BF53
:1002600006B607FEFDCF84E986BF089524EA26BFBF
:1002700006B607FEFDCF9B01220F232F221F330B53
:1002800031952E7F322F306A33B934E836BF06B647
:1002900007FEFDCF63B934E836BF06B607FEFDCFD3
:1002A00034EA36BF06B607FEFDCF216A23B924E83B
:1002B00026BF06B607FEFDCF24E826BF06B607FE1A
:1002C000FDCF23B1FC01208384E986BF089561E05E
:1002D00083E10E94960361E084E10E94960361E05D
:1002E00085E10E94960361E086E10E94960360E04A
:1002F0008CE00E94960360E08DE00E94960360E02F
:100300008EE00E94960360E08FE00E9496038CE0EE
:100310000E94E2048DE00E94E2048EE00E94E2046A
:100320008FE00E94E204089560E083E10E942104CE
:1003300061E084E10E94210461E085E10E942104E2
:1003400061E086E10E9421048CE00E94AC048823D5
:1003500009F487C08DE00E94AC04882309F483C0AF
:100360008EE00E94AC04882309F47FC08FE00E94D5
:10037000AC04882309F47BC061E083E10E9421047E
:1003800060E084E10E94210461E085E10E94210493
:1003900061E086E10E9421048CE00E94AC04882385
:1003A00009F467C08DE00E94AC04882309F463C09F
:1003B0008EE00E94AC04882309F45FC08FE00E94A5
:1003C000AC04882309F45BC061E083E10E9421044E
:1003D00061E084E10E94210460E085E10E94210443
:1003E00061E086E10E9421048CE00E94AC04882335
:1003F00009F447C08DE00E94AC04882309F443C08F
:100400008EE00E94AC04882309F43FC08FE00E9474
:10041000AC048823E1F161E083E10E94210461E002
:1004200084E10E94210461E085E10E94210460E0F2
:1004300086E10E9421048CE00E94AC04882349F1EB
:100440008DE00E94AC04882331F18EE00E94AC0460
:10045000882319F18FE00E94AC04811120C08BE247
:10046000089587E3089584E3089581E3089583E67A
:10047000089588E3089585E3089582E3089580E36D
:10048000089589E3089586E3089583E308958DE34D
:1004900008958FE208958AE208958DE2089588E72D
:1004A0000895811109C060E08AE00E94210461E0A2
:1004B00089E00E9421040895813041F460E08AE0DF
:1004C0000E94210460E089E00E942104089561E017
:1004D0008BE00E9421048FE99FE00197F1F700C0B3
:1004E000000060E08BE00E9421040895CF93C82FA4
:1004F00080E00E945102C4FB662760F984E00E94FC
:100500002104C5FB662760F985E00E942104C6FB33
:10051000662760F986E00E9421046C2F661F66271B
:10052000661F87E00E9421040E9467026C2F6170A1
:1005300084E00E942104C1FB662760F985E00E94E7
:100540002104C2FB662760F986E00E942104C3FBF8
:10055000662760F987E00E9421040E946702CF911C
:100560000895CF93C82F81E00E945102C4FB6627F3
:1005700060F984E00E942104C5FB662760F985E0EC
:100580000E942104C6FB662760F986E00E942104D0
:100590006C2F661F6627661F87E00E9421040E9459
:1005A00067026C2F617084E00E942104C1FB662702
:1005B00060F985E00E942104C2FB662760F986E0AD
:1005C0000E942104C3FB662760F987E00E94210492
:1005D0000E946702CF91089561E084E00E94960333
:1005E00061E085E00E94960361E086E00E94960348
:1005F00061E087E00E94960361E08BE00E94960331
:1006000061E08AE00E94960361E089E00E9496031F
:1006100082E00E94B1022FEF86E791E021508040F6
:100620009040E1F700C0000088E20E94B1028FE92B
:100630009FE00197F1F700C000008FE00E94B10237
:100640008FE99FE00197F1F700C0000081E00E9470
:10065000B1028FE39FE10197F1F700C0000086E04F
:100660000E94B102089581E00E94B10208950F93A3
:100670001F93CF938C01C0E003C00E947602CF5F2E
:10068000F801EC0FF11D80818111F7CFCF911F91FF
:100690000F910895EF92FF921F93CF93DF93CDB701
:1006A000DEB72A970FB6F894DEBF0FBECDBF7C0130
:1006B000009721F480E30E9476022CC099231CF459
:1006C0008DE20E94760210E012C0C7016AE070E07D
:1006D0000E943406E1E0F0E0EC0FFD1FE10FF11D98
:1006E00017FDFA95805D8083E62EF72E1F5F1E149E
:1006F0001F045CF311500CC0E1E0F0E0EC0FFD1FB3
:10070000E10FF11D17FDFA9580810E9476021150CC
:10071000112394F72A960FB6F894DEBF0FBECDBF13
:10072000DF91CF911F91FF90EF900895883000F5F1
:1007300061110EC04AB321E030E0B90102C0660F7A
:10074000771F8A95E2F7CB01809584238ABB0895B1
:10075000613009F075C04AB321E030E0B90102C050
:10076000660F771F8A95E2F7CB01842B8ABB089529
:1007700098EF980F983000F561110EC047B321E053
:1007800030E0B90102C0660F771F9A95E2F7CB01FE
:100790008095842387BB0895613009F051C047B329
:1007A00021E030E0B90102C0660F771F9A95E2F7A9
:1007B000CB01842B87BB089590EF980F9830F8F405
:1007C00061110EC044B321E030E0B90102C0660FF0
:1007D000771F9A95E2F7CB018095842384BB089517
:1007E000613071F544B321E030E0B90102C0660F19
:1007F000771F9A95E2F7CB01842B84BB089588512B
:100800008830F0F461110EC041B321E030E0B9014D
:1008100002C0660F771F8A95E2F7CB01809584238B
:1008200081BB0895613061F441B321E030E0B9014A
:1008300002C0660F771F8A95E2F7CB01842B81BB3C
:100840000895883000F561110EC04BB321E030E00F
:10085000B90102C0660F771F8A95E2F7CB01809538
:1008600084238BBB0895613009F075C04BB321E040
:1008700030E0B90102C0660F771F8A95E2F7CB011D
:10088000842B8BBB089598EF980F983000F5611179
:100890000EC048B321E030E0B90102C0660F771FF7
:1008A0009A95E2F7CB018095842388BB0895613047
:1008B00009F051C048B321E030E0B90102C0660F31
:1008C000771F9A95E2F7CB01842B88BB089590EFB0
:1008D000980F9830F8F461110EC045B321E030E074
:1008E000B90102C0660F771F9A95E2F7CB01809598
:1008F000842385BB0895613071F545B321E030E074
:10090000B90102C0660F771F9A95E2F7CB01842BDD
:1009100085BB089588518830F0F461110EC042B350
:1009200021E030E0B90102C0660F771F8A95E2F737
:10093000CB018095842382BB0895613061F442B37A
:1009400021E030E0B90102C0660F771F8A95E2F717
:10095000CB01842B82BB0895883058F429B330E052
:10096000A90102C0559547958A95E2F7CA018170A1
:10097000089528EF280F283048F486B390E002C08D
:10098000959587952A95E2F78170089520EF280FB5
:10099000283048F483B390E002C0959587952A9556
:1009A000E2F78170089528EE280F283050F490B3B4
:1009B000892F90E002C0959587952A95E2F781707E
:1009C0000895089561E00E94210408951F920F92F6
:1009D0000FB60F9211242F933F934F935F936F9312
:1009E0007F938F939F93AF93BF93EF93FF93E09188
:1009F0007C00F0917D000995FF91EF91BF91AF913F
:100A00009F918F917F916F915F914F913F912F9126
:100A10000F900FBE0F901F9018951F920F920FB658
:100A20000F9211242F933F934F935F936F937F9374
:100A30008F939F93AF93BF93EF93FF93E0917800D1
:100A4000F09179000995FF91EF91BF91AF919F913E
:100A50008F917F916F915F914F913F912F910F9067
:100A60000FBE0F901F9018951F920F920FB60F9206
:100A700011242F933F934F935F936F937F938F93A3
:100A80009F93AF93BF93EF93FF93E0917A00F09120
:100A90007B000995FF91EF91BF91AF919F918F914D
:100AA0007F916F915F914F913F912F910F900FBE6A
:100AB0000F901F901895813021F0811102C080EABB
:100AC00082B986B7846086BF88E480B908951F9292
:100AD0000F920FB60F9211242F933F934F935F9372
:100AE0006F937F938F939F93AF93BF93EF93FF93F6
:100AF000E0918000F09181000995FF91EF91BF9105
:100B0000AF919F918F917F916F915F914F913F91A5
:100B10002F910F900FBE0F901F9018951F920F925C
:100B20000FB60F9211242F933F934F935F936F93C0
:100B30007F938F939F93AF93BF93EF93FF93E09136
:100B40007E00F0917F000995FF91EF91BF91AF91E9
:100B50009F918F917F916F915F914F913F912F91D5
:100B60000F900FBE0F901F9018951F920F920FB607
:100B70000F9211242F933F934F935F936F937F9323
:100B80008F939F93AF93BF93EF93FF93E091820076
:100B9000F09183000995FF91EF91BF91AF919F91E3
:100BA0008F917F916F915F914F913F912F910F9016
:100BB0000FBE0F901F9018958AB188608AB98AB1CC
:100BC00080618AB98AB18B7F8AB986E880BD87E661
:100BD00089B910BC08955D9BFECF8CB908950F9321
:100BE0001F93CF938C01C0E003C00E94EB05CF5F41
:100BF000F801EC0FF11D80818111F7CFCF911F918A
:100C00000F91089580EA96E802C0019721F05F9B5A
:100C1000FCCF8CB1089588E708951F920F920FB60C
:100C20000F9211242F933F934F935F936F937F9372
:100C30008F939F93AF93BF93EF93FF93E0918400C3
:100C4000F09185000995FF91EF91BF91AF919F9130
:100C50008F917F916F915F914F913F912F910F9065
:100C60000FBE0F901F90189597FB072E16F4009457
:100C700007D077FD09D00E94480607FC05D03EF456
:100C8000909581959F4F0895709561957F4F089538
:100C9000AA1BBB1B51E107C0AA1FBB1FA617B707A2
:100CA00010F0A61BB70B881F991F5A95A9F78095BE
:0C0CB0009095BC01CD010895F894FFCF91
:100CBC0057656C636F6D650057726F6E672050617E
:080CCC007373776F726400007E
:00000001FF
