S00C0000636F64652E737265637D
S11300000C942A000C9434000C9434000C943400A6
S11300100C9434000C9434000C9434000C9434008C
S11300200C9434000C9434000C9434000C9434007C
S11300300C9434000C9434000C9434000C9434006C
S11300400C9434000C9434000C9434000C9434005C
S11300500C94340011241FBECFE5D8E0DEBFCDBF21
S11300600E9436000C94A6020C9400000E943B00EF
S113007080E090E008950E940F0161E088E10E9411
S11300805A0161E08EE10E945A010E94560180E308
S11300900E949900C0E088E10E947002813079F4E6
S11300A0CF5F0E94560188E10E9470028130D9F32B
S11300B0CA3009F4C9E080E38C0F0E9499008EE1F4
S11300C00E947002813039F7C1500E9456018EE1BE
S11300D00E9470028130D9F3CF3F09F4C0E080E37D
S11300E08C0F0E949900D7CF843449F460E08AE0F1
S11300F00E94E50161E089E00E94E50108958334EE
S113010041F460E08AE00E94E50160E089E00E9439
S1130110E501089561E08BE00E94E5018FE99FE02D
S11301200197F1F700C0000060E08BE00E94E50158
S11301300895CF93C82F84E40E947400C4FB6627FB
S113014060F984E00E94E501C5FB662760F985E05B
S11301500E94E501C6FB662760F986E00E94E5017E
S11301606C2F661F6627661F87E00E94E5010E94C8
S11301708A006C2F617084E00E94E501C1FB662750
S113018060F985E00E94E501C2FB662760F986E01C
S11301900E94E501C3FB662760F987E00E94E50140
S11301A00E948A00CF910895CF93C82F83E40E94C0
S11301B07400C4FB662760F984E00E94E501C5FB76
S11301C0662760F985E00E94E501C6FB662760F9B1
S11301D086E00E94E5016C2F661F6627661F87E094
S11301E00E94E5010E948A006C2F617084E00E94E5
S11301F0E501C1FB662760F985E00E94E501C2FBC9
S1130200662760F986E00E94E501C3FB662760F972
S113021087E00E94E5010E948A00CF91089561E081
S113022084E00E945A0161E085E00E945A0161E085
S113023086E00E945A0161E087E00E945A0161E071
S11302408BE00E945A0161E08AE00E945A0161E059
S113025089E00E945A0182E00E94D4002FEF86E7D1
S113026091E0215080409040E1F700C0000088E216
S11302700E94D4008FE99FE00197F1F700C00000CD
S11302808FE00E94D4008FE99FE00197F1F700C04E
S1130290000081E00E94D4008FE39FE10197F1F711
S11302A000C0000086E00E94D400089581E00E940E
S11302B0D4000895883000F561110EC04AB321E0DE
S11302C030E0B90102C0660F771F8A95E2F7CB01CF
S11302D0809584238ABB0895613009F075C04AB3C0
S11302E021E030E0B90102C0660F771F8A95E2F77A
S11302F0CB01842B8ABB089598EF980F983000F5B2
S113030061110EC047B321E030E0B90102C0660FAD
S1130310771F9A95E2F7CB018095842387BB0895D4
S1130320613009F051C047B321E030E0B90102C0A7
S1130330660F771F9A95E2F7CB01842B87BB08954C
S113034090EF980F9830F8F461110EC044B321E097
S113035030E0B90102C0660F771F9A95E2F7CB012E
S11303608095842384BB0895613071F544B321E002
S113037030E0B90102C0660F771F9A95E2F7CB010E
S1130380842B84BB089588518830F0F461110EC029
S113039044B321E030E0B90102C0660F771F8A95AB
S11303A0E2F7CB018095842384BB0895613061F426
S11303B044B321E030E0B90102C0660F771F8A958B
S11303C0E2F7CB01842B84BB0895883000F56111DA
S11303D00EC04BB321E030E0B90102C0660F771FB5
S11303E08A95E2F7CB01809584238BBB0895613015
S11303F009F075C04BB321E030E0B90102C0660FCB
S1130400771F8A95E2F7CB01842B8BBB089598EF75
S1130410980F983000F561110EC048B321E030E028
S1130420B90102C0660F771F9A95E2F7CB01809558
S1130430842388BB0895613009F051C048B321E09A
S113044030E0B90102C0660F771F9A95E2F7CB013D
S1130450842B88BB089590EF980F9830F8F46111BD
S11304600EC045B321E030E0B90102C0660F771F2A
S11304709A95E2F7CB018095842385BB089561307A
S113048071F545B321E030E0B90102C0660F771F72
S11304909A95E2F7CB01842B85BB08958851883067
S11304A0F0F461110EC042B321E030E0B90102C0A2
S11304B0660F771F8A95E2F7CB018095842382BB70
S11304C00895613061F442B321E030E0B90102C023
S11304D0660F771F8A95E2F7CB01842B82BB0895C0
S11304E0883058F429B330E0A90102C055954795E6
S11304F08A95E2F7CA018170089528EF280F283001
S113050048F486B390E002C0959587952A95E2F762
S11305108170089520EF280F283048F483B390E0C9
S113052002C0959587952A95E2F78170089528EE83
S1130530280F283050F490B3892F90E002C095958D
S113054087952A95E2F7817008950895F894FFCF6E
S9030000FC
