S00C0000636F64652E737265637D
S11300000C942A000C9434000C9434000C943400A6
S11300100C9434000C9434000C9434000C9434008C
S11300200C9434000C9434000C9434000C9434007C
S11300300C9434000C9434000C9434000C9434006C
S11300400C9434000C9434000C9434000C9434005C
S11300500C94340011241FBECFE5D8E0DEBFCDBF21
S11300600E9436000C9452020C9400000E943B0043
S113007080E090E008950E94E500C0E001C0C0E087
S113008061E08C2F0E94300181E40E946500CF5F03
S11300902FEF89E698E1215080409040E1F700C0BD
S11300A000000E942C01C03159F7E9CF61E08BE0D8
S11300B00E94C7018FE99FE00197F1F700C000009B
S11300C060E08BE00E94C7010895CF93C82F60E0E1
S11300D08AE00E94C70161E089E00E94C701C4FB75
S11300E0662760F984E00E94C701C5FB662760F9B2
S11300F085E00E94C701C6FB662760F986E00E947E
S1130100C7016C2F661F6627661F87E00E94C70120
S11301100E9456006C2F617084E00E94C701C1FBED
S1130120662760F985E00E94C701C2FB662760F973
S113013086E00E94C701C3FB662760F987E00E943E
S1130140C7010E945600CF910895CF93C82F60E055
S11301508AE00E94C70160E089E00E94C701C4FBF5
S1130160662760F984E00E94C701C5FB662760F931
S113017085E00E94C701C6FB662760F986E00E94FD
S1130180C7016C2F661F6627661F87E00E94C701A0
S11301900E9456006C2F617084E00E94C701C1FB6D
S11301A0662760F985E00E94C701C2FB662760F9F3
S11301B086E00E94C701C3FB662760F987E00E94BE
S11301C0C7010E945600CF91089561E084E00E9427
S11301D03C0161E085E00E943C0161E086E00E9410
S11301E03C0161E087E00E943C0161E08BE00E94F9
S11301F03C0161E08AE00E943C0161E089E00E94E8
S11302003C0182E00E94A5002FEF86E791E0215097
S113021080409040E1F700C0000088E20E94A50001
S11302208FE99FE00197F1F700C000008FE00E9482
S1130230A5008FE99FE00197F1F700C0000081E07D
S11302400E94A5008FE39FE10197F1F700C0000031
S113025086E00E94A500089581E00E94A50008950B
S1130260611104C080580E94A5000895613019F4FA
S113027080540E94A5000895883000F561110EC0D5
S11302804AB321E030E0B90102C0660F771F8A95B6
S1130290E2F7CB01809584238ABB0895613009F08D
S11302A075C04AB321E030E0B90102C0660F771F80
S11302B08A95E2F7CB01842B8ABB089598EF980FB7
S11302C0983000F561110EC047B321E030E0B90168
S11302D002C0660F771F9A95E2F7CB0180958423BD
S11302E087BB0895613009F051C047B321E030E085
S11302F0B90102C0660F771F9A95E2F7CB01842BF0
S113030087BB089590EF980F9830F8F461110EC0F0
S113031044B321E030E0B90102C0660F771F9A951B
S1130320E2F7CB018095842384BB0895613071F595
S113033044B321E030E0B90102C0660F771F9A95FB
S1130340E2F7CB01842B84BB089588518830F0F404
S113035061110EC044B321E030E0B90102C0660F60
S1130360771F8A95E2F7CB018095842384BB089597
S1130370613061F444B321E030E0B90102C0660F9A
S1130380771F8A95E2F7CB01842B84BB08958830CC
S113039000F561110EC04BB321E030E0B90102C099
S11303A0660F771F8A95E2F7CB01809584238BBB78
S11303B00895613009F075C04BB321E030E0B90114
S11303C002C0660F771F8A95E2F7CB01842B8BBBA3
S11303D0089598EF980F983000F561110EC048B356
S11303E021E030E0B90102C0660F771F9A95E2F769
S11303F0CB018095842388BB0895613009F051C0F6
S113040048B321E030E0B90102C0660F771F9A9526
S1130410E2F7CB01842B88BB089590EF980F9830B6
S1130420F8F461110EC045B321E030E0B90102C017
S1130430660F771F9A95E2F7CB018095842385BBDD
S11304400895613071F545B321E030E0B90102C08F
S1130450660F771F9A95E2F7CB01842B85BB08952D
S113046088518830F0F461110EC042B321E030E0CD
S1130470B90102C0660F771F8A95E2F7CB01809518
S1130480842382BB0895613061F442B321E030E0FB
S1130490B90102C0660F771F8A95E2F7CB01842B5E
S10B04A082BB0895F894FFCF1C
S9030000FC
