S00C0000636F64652E737265637D
S11300000C942A000C94F9000C9420010C944701E0
S11300100C943C000C943C000C943C000C943C006C
S11300200C943C000C943C000C9499010C947201C7
S11300300C943C000C943C000C943C000C943C004C
S11300400C943C000C943C000C943C000C943C003C
S11300500C943C0011241FBECFE5D8E0DEBFCDBF19
S113006020E0A0E6B0E001C01D92AA36B207E1F795
S11300700E943E000C9437020C9400000E9443003E
S113008080E090E0089561E08DE10E946E000E949E
S11300906E010E94C00188EE93E00E94D60189EFB0
S11300A090E00E94D30183EF91E00E94D3012FEFEF
S11300B083ED90E3215080409040E1F700C00000C0
S11300C089EF90E00E94D3012FEF83ED90E321505C
S11300D080409040E1F700C00000E5CF883000F593
S11300E061110EC04AB321E030E0B90102C0660FCD
S11300F0771F8A95E2F7CB01809584238ABB089504
S1130100613009F075C04AB321E030E0B90102C0A2
S1130110660F771F8A95E2F7CB01842B8ABB08957B
S113012098EF980F983000F561110EC047B321E0A5
S113013030E0B90102C0660F771F9A95E2F7CB0150
S11301408095842387BB0895613009F051C047B37B
S113015021E030E0B90102C0660F771F9A95E2F7FB
S1130160CB01842B87BB089590EF980F9830F8F457
S113017061110EC044B321E030E0B90102C0660F42
S1130180771F9A95E2F7CB018095842384BB089569
S1130190613071F544B321E030E0B90102C0660F6B
S11301A0771F9A95E2F7CB01842B84BB089588517D
S11301B08830F0F461110EC044B321E030E0B9019D
S11301C002C0660F771F8A95E2F7CB0180958423DE
S11301D084BB0895613061F444B321E030E0B90197
S11301E002C0660F771F8A95E2F7CB01842B84BB8C
S11301F008951F920F920FB60F9211242F933F93DD
S11302004F935F936F937F938F939F93AF93BF931A
S1130210EF93FF93E0916400F09165000995FF91DD
S1130220EF91BF91AF919F918F917F916F915F916A
S11302304F913F912F910F900FBE0F901F901895E3
S11302401F920F920FB60F9211242F933F934F9347
S11302505F936F937F938F939F93AF93BF93EF932A
S1130260FF93E0916000F09161000995FF91EF9197
S1130270BF91AF919F918F917F916F915F914F91BA
S11302803F912F910F900FBE0F901F9018951F92C2
S11302900F920FB60F9211242F933F934F935F93B6
S11302A06F937F938F939F93AF93BF93EF93FF933A
S11302B0E0916200F09163000995FF91EF91BF9185
S11302C0AF919F918F917F916F915F914F913F91EA
S11302D02F910F900FBE0F901F9018958FB78068C5
S11302E08FBF08951F920F920FB60F9211242F9370
S11302F03F934F935F936F937F938F939F93AF93AA
S1130300BF93EF93FF93E0916800F0916900099522
S1130310FF91EF91BF91AF919F918F917F916F91D9
S11303205F914F913F912F910F900FBE0F901F90AF
S113033018951F920F920FB60F9211242F933F938B
S11303404F935F936F937F938F939F93AF93BF93D9
S1130350EF93FF93E0916600F09167000995FF9198
S1130360EF91BF91AF919F918F917F916F915F9129
S11303704F913F912F910F900FBE0F901F901895A2
S11303808FB58E7F8FBD8FB582608FBD8EB588602F
S11303908EBD8EB580618EBD8FB58F7B8FBD8FB5C1
S11303A080688FBD08959BBD8ABD089500249695ED
S11303B087950794969587950794982F802D9C018F
S11303C040E050E060E074E284EF90E00E94F601C7
S11303D02150310937BD26BD8EB581608EBD8EB5E5
S11303E082608EBD8EB58B7F8EBD0895052E97FBE2
S11303F01EF400940E940D0257FD07D00E941502BE
S113040007FC03D04EF40C940D02509540953095A2
S113041021953F4F4F4F5F4F08959095809570956C
S113042061957F4F8F4F9F4F0895A1E21A2EAA1B0B
S1130430BB1BFD010DC0AA1FBB1FEE1FFF1FA21790
S1130440B307E407F50720F0A21BB30BE40BF50B8D
S1130450661F771F881F991F1A9469F76095709516
S1130460809590959B01AC01BD01CF010895F8944E
S1050470FFCFB8
S9030000FC
