:100000000C942A000C9434000C9434000C943400AA
:100010000C9434000C9434000C9434000C94340090
:100020000C9434000C9434000C9434000C94340080
:100030000C9434000C9434000C9434000C94340070
:100040000C9434000C9434000C9434000C94340060
:100050000C94340011241FBECFE5D8E0DEBFCDBF25
:100060000E9436000C9456020C9400000E943B0043
:1000700080E090E008950E94910060E088E00E9496
:100080000A0160E08EE10E940A0160E08AE10E94BC
:100090000A01C0E0D0E000E011E003C0C0E0D0E021
:1000A00000E0812F0E94AA002196C43F81E0D8077A
:1000B00029F4011103C01F5FC0E0D0E0C43F81E01C
:1000C000D80729F4023019F41150C0E0D0E088E0DC
:1000D0000E942002813031F488E00E9420028130A9
:1000E000D9F301E08EE10E942002813049F48EE1D3
:1000F0000E9420028130D9F3C0E0D0E000E011E09E
:100100008AE10E942002813041F48AE10E942002AB
:100110008130D9F3C0E0D0E002E0112309F4BECF72
:10012000C0CF61E084E00E940A0161E085E00E94A6
:100130000A0161E086E00E940A0161E087E00E9416
:100140000A0161E08AE00E940A0161E089E00E9400
:100150000A0108951F93CF93DF93182F60E089E081
:100160000E949501CDEC1C9FC12D1124C695C6950A
:10017000C6956C2F617084E00E949501C1FB6627D3
:1001800060F985E00E949501C2FB662760F986E070
:100190000E949501C3FB662760F987E00E949501E4
:1001A00061E08AE00E9495018FE99FE00197F1F7F5
:1001B00000C0000060E08AE00E949501CC0F8C2F07
:1001C000880F880FC80FD12FDC1B6D2F617084E062
:1001D0000E949501D1FB662760F985E00E94950198
:1001E000D2FB662760F986E00E949501D3FB662763
:1001F00060F987E00E94950161E089E00E94950125
:100200008FE99FE00197F1F700C00000DF91CF91E7
:100210001F910895883000F561110EC04AB321E0A6
:1002200030E0B90102C0660F771F8A95E2F7CB0173
:10023000809584238ABB0895613009F075C04AB364
:1002400021E030E0B90102C0660F771F8A95E2F71E
:10025000CB01842B8ABB089598EF980F983000F556
:1002600061110EC047B321E030E0B90102C0660F52
:10027000771F9A95E2F7CB018095842387BB089579
:10028000613009F051C047B321E030E0B90102C04C
:10029000660F771F9A95E2F7CB01842B87BB0895F1
:1002A00090EF980F9830F8F461110EC044B321E03C
:1002B00030E0B90102C0660F771F9A95E2F7CB01D3
:1002C0008095842384BB0895613071F544B321E0A7
:1002D00030E0B90102C0660F771F9A95E2F7CB01B3
:1002E000842B84BB089588518830F0F461110EC0CE
:1002F00044B321E030E0B90102C0660F771F8A9550
:10030000E2F7CB018095842384BB0895613061F4CA
:1003100044B321E030E0B90102C0660F771F8A952F
:10032000E2F7CB01842B84BB0895883000F561117E
:100330000EC04BB321E030E0B90102C0660F771F59
:100340008A95E2F7CB01809584238BBB08956130B9
:1003500009F075C04BB321E030E0B90102C0660F6F
:10036000771F8A95E2F7CB01842B8BBB089598EF1A
:10037000980F983000F561110EC048B321E030E0CD
:10038000B90102C0660F771F9A95E2F7CB018095FD
:10039000842388BB0895613009F051C048B321E03F
:1003A00030E0B90102C0660F771F9A95E2F7CB01E2
:1003B000842B88BB089590EF980F9830F8F4611162
:1003C0000EC045B321E030E0B90102C0660F771FCF
:1003D0009A95E2F7CB018095842385BB089561301F
:1003E00071F545B321E030E0B90102C0660F771F17
:1003F0009A95E2F7CB01842B85BB0895885188300C
:10040000F0F461110EC042B321E030E0B90102C046
:10041000660F771F8A95E2F7CB018095842382BB14
:100420000895613061F442B321E030E0B90102C0C7
:10043000660F771F8A95E2F7CB01842B82BB089564
:10044000883058F429B330E0A90102C0559547958A
:100450008A95E2F7CA018170089528EF280F2830A5
:1004600048F486B390E002C0959587952A95E2F707
:100470008170089520EF280F283048F483B390E06E
:1004800002C0959587952A95E2F78170089528EE28
:10049000280F283050F490B3892F90E002C0959532
:1004A00087952A95E2F7817008950895F894FFCF13
:00000001FF
