S00C0000636F64652E737265637D
S11300000C943A000C9444000C9444000C94440066
S11300100C9444000C9444000C9444000C9444004C
S11300200C9444000C9444000C9444000C9444003C
S11300300C9444000C9444000C9444000C9444002C
S11300400C9444000C9444000C9444000C9444001C
S11300500C9444009900B700D600F600170137014C
S1130060580179019801B901DA01FA011B023B0236
S11300705C027C0211241FBECFE5D8E0DEBFCDBFF9
S11300800E9446000C9453040C9400000E944B0000
S113009080E090E0089560E082E00E94FD0282E04A
S11300A00E94490460E08EE00E94FD028EE00E94FE
S11300B0490481E08F9397E19F938F9396E19F93F7
S11300C08F930F2EF5E18F2EF02DAA24A3940F2EDB
S11300D0F4E1CF2EF02DEE24E39403E121E042E19C
S11300E061E081E10E949B020F900F900F900F90AE
S11300F00F90C0E082E00E94130481110AC0CF5F18
S11301002FEF85EA9EE0215080409040E1F700C047
S113011000008EE00E941304811101C0C0E08C2F06
S113012090E08031910530F7FC01E65DFF4F0C94BF
S11301304D041F9287E18F931F9286E18F931F9244
S11301400F2EF5E18F2EF02DA12C0F2EF4E1CF2EE2
S1130150F02DE12C03E120E042E160E081E10E9426
S1130160CC020F900F900F900F900F90C3CF1F925F
S113017087E18F931F9286E18F931F920F2EF5E1F3
S11301808F2EF02DA12C0F2EF4E1CF2EF02DEE2486
S1130190E39403E121E042E160E081E10E94CC02CA
S11301A00F900F900F900F900F90A4CF81E08F933A
S11301B097E19F931F9296E19F938F930F2EF5E102
S11301C08F2EF02DAA24A3940F2EF4E1CF2EF02D20
S11301D0E12C03E121E042E161E081E10E94CC02F3
S11301E00F900F900F900F900F9084CF81E08F931A
S11301F087E18F931F9286E18F931F920F2EF5E173
S11302008F2EF02DAA24A3940F2EF4E1CF2EF02DDF
S1130210EE24E39403E121E042E161E081E10E9404
S1130220CC020F900F900F900F900F9063CF81E04E
S11302308F9397E19F938F9386E18F931F920F2E55
S1130240F5E18F2EF02DA12C0F2EF4E1CF2EF02D01
S1130250EE24E39403E121E042E160E081E10E94C5
S1130260CC020F900F900F900F900F9043CF81E02E
S11302708F9397E19F938F9386E18F931F920F2E15
S1130280F5E18F2EF02DAA24A3940F2EF4E1CF2EA6
S1130290F02DEE24E39403E120E042E161E081E10A
S11302A00E94CC020F900F900F900F900F9022CFCE
S11302B081E08F9397E19F938F9396E19F938F9320
S11302C00F2EF5E18F2EF02DAA24A3940F2EF4E126
S11302D0CF2EF02DEE24E39403E120E042E161E02F
S11302E081E10E94CC020F900F900F900F900F901D
S11302F001CF1F9287E18F931F9286E18F931F9204
S11303000F2EF5E18F2EF02DA12C0F2EF4E1CF2E20
S1130310F02DEE24E39403E121E042E161E081E188
S11303200E94CC020F900F900F900F900F90E2CE8E
S113033081E08F9397E19F938F9396E19F938F939F
S11303400F2EF5E18F2EF02DAA24A3940F2EF4E1A5
S1130350CF2EF02DEE24E39403E121E042E161E0AD
S113036081E10E94CC020F900F900F900F900F909C
S1130370C1CE81E08F9397E19F938F9386E18F9312
S11303801F920F2EF5E18F2EF02DAA24A3940F2E89
S1130390F4E1CF2EF02DEE24E39403E121E042E1D9
S11303A061E081E10E94CC020F900F900F900F90BA
S11303B00F90A0CE81E08F9397E19F938F9396E166
S11303C09F938F930F2EF5E18F2EF02DA12C0F2EDE
S11303D0F4E1CF2EF02DEE24E39403E121E042E199
S11303E061E081E10E94CC020F900F900F900F907A
S11303F00F9080CE81E08F9397E19F938F9396E146
S11304009F938F930F2EF5E18F2EF02DAA24A394A2
S11304100F2EF4E1CF2EF02DEE24E39403E120E03F
S113042042E160E081E10E94CC020F900F900F90B6
S11304300F900F905FCE1F9287E18F9381E08F938F
S113044096E19F938F930F2EF5E18F2EF02DAA2422
S1130450A3940F2EF4E1CF2EF02DE12C03E120E044
S113046042E161E081E10E94CC020F900F900F9075
S11304700F900F903FCE81E08F9397E19F931F924F
S113048096E19F938F930F2EF5E18F2EF02DAA24E2
S1130490A3940F2EF4E1CF2EF02DEE24E39403E188
S11304A021E042E160E081E10E94CC020F900F90D4
S11304B00F900F900F901ECE81E08F9397E19F9342
S11304C08F9396E19F938F930F2EF5E18F2EF02D4E
S11304D0AA24A3940F2EF4E1CF2EF02DE12C03E1F6
S11304E020E042E161E081E10E94CC020F900F9094
S11304F00F900F900F90FECD81E08F9397E19F9323
S11305008F9396E19F938F930F2EF5E18F2EF02D0D
S1130510A12C0F2EF4E1CF2EF02DE12C03E120E0ED
S113052042E161E081E10E94CC020F900F900F90B4
S11305300F900F90DFCD8F92AF92CF92EF92FF92F8
S11305400F931F93CF93DF93CDB7DEB7142FF22E03
S11305500E94FD026F2D812F0E94FD026E2D802FBF
S11305600E94FD026A2D8C2D0E94FD026C85882D4F
S11305700E94FD026E858D850E94FD0268898F852B
S11305800E94FD02DF91CF911F910F91FF90EF9098
S1130590CF90AF908F9008958F92AF92CF92EF92B9
S11305A0FF920F931F93CF93DF93CDB7DEB7142F32
S11305B0F22E0E9488036F2D812F0E9488036E2DD6
S11305C0802F0E9488036A2D8C2D0E9488036C85DD
S11305D0882D0E9488036E858D850E948803688912
S11305E08F850E948803DF91CF911F910F91FF9017
S11305F0EF90CF90AF908F900895883000F56111FF
S11306000EC04AB321E030E0B90102C0660F771F83
S11306108A95E2F7CB01809584238ABB08956130E3
S113062009F075C04AB321E030E0B90102C0660F99
S1130630771F8A95E2F7CB01842B8ABB089598EF44
S1130640980F983000F561110EC047B321E030E0F7
S1130650B90102C0660F771F9A95E2F7CB01809526
S1130660842387BB0895613009F051C047B321E06A
S113067030E0B90102C0660F771F9A95E2F7CB010B
S1130680842B87BB089590EF980F9830F8F461118C
S11306900EC044B321E030E0B90102C0660F771FF9
S11306A09A95E2F7CB018095842384BB0895613049
S11306B071F544B321E030E0B90102C0660F771F41
S11306C09A95E2F7CB01842B84BB08958851883036
S11306D0F0F461110EC044B321E030E0B90102C06E
S11306E0660F771F8A95E2F7CB018095842384BB3C
S11306F00895613061F444B321E030E0B90102C0EF
S1130700660F771F8A95E2F7CB01842B84BB08958B
S1130710883000F561110EC04BB321E030E0B9011F
S113072002C0660F771F8A95E2F7CB018095842378
S11307308BBB0895613009F075C04BB321E030E004
S1130740B90102C0660F771F8A95E2F7CB01842BAB
S11307508BBB089598EF980F983000F561110EC087
S113076048B321E030E0B90102C0660F771F9A95C3
S1130770E2F7CB018095842388BB0895613009F0AA
S113078051C048B321E030E0B90102C0660F771FC1
S11307909A95E2F7CB01842B88BB089590EF980FCC
S11307A09830F8F461110EC045B321E030E0B9018E
S11307B002C0660F771F9A95E2F7CB0180958423D8
S11307C085BB0895613071F545B321E030E0B9018E
S11307D002C0660F771F9A95E2F7CB01842B85BB85
S11307E0089588518830F0F461110EC042B321E0BD
S11307F030E0B90102C0660F771F8A95E2F7CB019A
S11308008095842382BB0895613061F442B321E072
S113081030E0B90102C0660F771F8A95E2F7CB0179
S1130820842B82BB0895883058F429B330E0A901A1
S113083002C0559547958A95E2F7CA0181700895DB
S113084028EF280F283048F486B390E002C095952D
S113085087952A95E2F78170089520EF280F2830B4
S113086048F483B390E002C0959587952A95E2F702
S11308708170089528EE280F283050F490B3892F02
S113088090E002C0959587952A95E2F781700895C6
S1130890089561E00E9488030895EE0FFF1F0590FC
S10D08A0F491E02D0994F894FFCFC1
S9030000FC
