:100000000C942A000C94D6010C94FD010C9424024B
:100010000C943C000C943C000C943C000C943C0070
:100020000C943C000C943C000C943C000C948E020C
:100030000C943C000C943C000C943C000C943C0050
:100040000C943C000C943C000C943C000C943C0040
:100050000C943C0011241FBECFE5D8E0DEBFCDBF1D
:1000600020E0A0E6B0E001C01D92AC36B207E1F797
:100070000E943E000C94B5020C9400000E946A009D
:1000800080E090E008958091620090916300019675
:10009000909363008093620082349F4039F482E140
:1000A0000E94CA0110926300109262008091600069
:1000B0009091610001969093610080936000843874
:1000C0009E4139F483E10E94CA01109261001092AE
:1000D0006000089561E082E10E947E0061E083E1BA
:1000E0000E947E000E944B020E944F0281E00E940B
:1000F000590283E490E00E948902FFCF883000F526
:1001000061110EC04AB321E030E0B90102C0660FB0
:10011000771F8A95E2F7CB01809584238ABB0895E7
:10012000613009F075C04AB321E030E0B90102C086
:10013000660F771F8A95E2F7CB01842B8ABB08955F
:1001400098EF980F983000F561110EC047B321E089
:1001500030E0B90102C0660F771F9A95E2F7CB0134
:100160008095842387BB0895613009F051C047B35F
:1001700021E030E0B90102C0660F771F9A95E2F7DF
:10018000CB01842B87BB089590EF980F9830F8F43B
:1001900061110EC044B321E030E0B90102C0660F26
:1001A000771F9A95E2F7CB018095842384BB08954D
:1001B000613071F544B321E030E0B90102C0660F4F
:1001C000771F9A95E2F7CB01842B84BB0895885161
:1001D0008830F0F461110EC044B321E030E0B90181
:1001E00002C0660F771F8A95E2F7CB0180958423C2
:1001F00084BB0895613061F444B321E030E0B9017B
:1002000002C0660F771F8A95E2F7CB01842B84BB6F
:100210000895883000F561110EC04BB321E030E045
:10022000B90102C0660F771F8A95E2F7CB0180956E
:1002300084238BBB0895613009F075C04BB321E076
:1002400030E0B90102C0660F771F8A95E2F7CB0153
:10025000842B8BBB089598EF980F983000F56111AF
:100260000EC048B321E030E0B90102C0660F771F2D
:100270009A95E2F7CB018095842388BB089561307D
:1002800009F051C048B321E030E0B90102C0660F67
:10029000771F9A95E2F7CB01842B88BB089590EFE6
:1002A000980F9830F8F461110EC045B321E030E0AA
:1002B000B90102C0660F771F9A95E2F7CB018095CE
:1002C000842385BB0895613071F545B321E030E0AA
:1002D000B90102C0660F771F9A95E2F7CB01842B14
:1002E00085BB089588518830F0F461110EC042B387
:1002F00021E030E0B90102C0660F771F8A95E2F76E
:10030000CB018095842382BB0895613061F442B3B0
:1003100021E030E0B90102C0660F771F8A95E2F74D
:10032000CB01842B82BB0895883058F429B330E088
:10033000A90102C0559547958A95E2F7CA018170D7
:10034000089528EF280F283048F486B390E002C0C3
:10035000959587952A95E2F78170089520EF280FEB
:10036000283048F483B390E002C0959587952A958C
:10037000E2F78170089528EE280F283050F490B3EA
:10038000892F90E002C0959587952A95E2F78170B4
:1003900008950895CF93C82F0E94940161E08111C0
:1003A00060E08C2F0E940901CF9108951F920F9257
:1003B0000FB60F9211242F933F934F935F936F9338
:1003C0007F938F939F93AF93BF93EF93FF93E091AE
:1003D0006800F09169000995FF91EF91BF91AF918D
:1003E0009F918F917F916F915F914F913F912F914D
:1003F0000F900FBE0F901F9018951F920F920FB67F
:100400000F9211242F933F934F935F936F937F939A
:100410008F939F93AF93BF93EF93FF93E09164000B
:10042000F09165000995FF91EF91BF91AF919F9178
:100430008F917F916F915F914F913F912F910F908D
:100440000FBE0F901F9018951F920F920FB60F922C
:1004500011242F933F934F935F936F937F938F93C9
:100460009F93AF93BF93EF93FF93E0916600F0915A
:1004700067000995FF91EF91BF91AF919F918F9187
:100480007F916F915F914F913F912F910F900FBE90
:100490000F901F9018958FB780688FBF089583B70E
:1004A0008F7B83BF83B7877F83BF89B7816089BF15
:1004B000089581110AC083B7816083BF83B78D7FA0
:1004C00083BF83B78B7F83BF0895813051F483B797
:1004D0008E7F83BF83B7826083BF83B78B7F83BFE9
:1004E0000895823051F483B7816083BF83B78260FF
:1004F00083BF83B78B7F83BF0895833049F483B76D
:100500008E7F83BF83B78D7F83BF83B7846083BFB4
:10051000089590936B0080936A0008951F920F9244
:100520000FB60F9211242F933F934F935F936F93C6
:100530007F938F939F93AF93BF93EF93FF93E0913C
:100540006A00F0916B000995FF91EF91BF91AF9117
:100550009F918F917F916F915F914F913F912F91DB
:0E0560000F900FBE0F901F901895F894FFCFCC
:00000001FF
