:100000000C942A000C945B0C0C94820C0C94A90C9C
:100010000C9447000C9447000C941E0D0C94C302E2
:100020000C9447000C9447000C94F70C0C94D00CE3
:100030000C9447000C94450D0C9447000C94470019
:100040000C9447000C9447000C9447000C94470014
:100050000C94470011241FBECFE5D8E0DEBFCDBF12
:1000600010E0A0E6B0E0E6E1FBE102C005900D92F1
:10007000A636B107D9F727E0A6E6B0E001C01D9289
:10008000AB31B207E1F70E9449000C94890D0C9442
:1000900000000E94900080E090E008958AE10E94B4
:1000A000190C813081F420E040E050E060E070E025
:1000B00080910707909108070E9428048AE10E9416
:1000C000190C8130D9F384EF91E00E947C09E6CFCE
:1000D00080910707909108070E943D058330D9F46D
:1000E00082E10E944F0C60E070E0809107079091E0
:1000F00008070E94BA0460E070E0809107079091C1
:1001000008070E94BA0460E070E0809107079091B0
:1001100008070E94BA0484EF91E00E947C09D8CFBE
:1001200060E08AE10E94030B61E082E10E94030B20
:100130000F2EFBE0EF2EF7E0FF2EF02D02E020E087
:1001400030E044E650E060E070E08EE490E00E9431
:1001500002070F2EF9E0EF2EF7E0FF2EF02D01E061
:1001600020E030E044E650E060E070E088E690E0B7
:100170000E94020760E083E00E9412049093080747
:10018000809307070E945B07FFCFCF93DF93EC01BB
:100190000E9487078091660090916700892B31F457
:1001A0008AE690E090936700809366002097C9F0FC
:1001B00080916800909169009E01280F391F2F33AC
:1001C00046E0340788F48217930788F4C0916600EC
:1001D000D0916700C80FD91F309369002093680041
:1001E00008C0C0E0D0E005C0C0E0D0E002C0C0E080
:1001F000D0E00E94A708CE01DF91CF910895089525
:10020000FC010396928381832FEF3FEF3483238396
:10021000968385839087878310820895FC011186D9
:1002200010860895CF93DF93EB01488159814F3FAA
:100230002FEF520721F4FC01A781B0850DC0DC012E
:10024000139601C0DF011296ED91FC911397208166
:10025000318142175307B0F71296ED91FC91139735
:10026000FB83EA83D583C483BD83AC831396DC937D
:10027000CE93129799878887FC0120812F5F208376
:10028000DF91CF910895CF93DF93FC01A085B185D5
:10029000C281D381848195819D838C83C481D581E2
:1002A000828193819B838A8311968D919C91129771
:1002B000E817F90731F48481958112969C938E9307
:1002C0001197118610868C9181508C938C91DF91BF
:1002D000CF9108951BBC89EF8ABD8BE08EBD89B795
:1002E000806189BF089531E1FC013083319722E2BA
:1002F00020833197A3E3A083319760833197708384
:1003000031971082319760E860833197108231977E
:1003100062E06083319763E06083319764E06083DB
:10032000319765E06083319766E06083319767E0DD
:100330006083319768E06083319769E0608331972B
:1003400060E1608331973083319732E130833197B8
:1003500033E13083319734E13083319735E13083B5
:10036000319736E13083319737E13083319738E187
:100370003083319739E13083319730E230833197E0
:1003800031E2308331972083319723E22083319704
:10039000408331975083319726E22083319727E2BB
:1003A0002083319728E22083319729E220833197F7
:1003B00020E32083319721E32083869708950E94CC
:1003C0006A01A0910507B0910607CD91CDBFDD91DF
:1003D000DEBFFF91EF91DF91CF91BF91AF919F91E0
:1003E0008F917F916F915F914F913F912F911F91CD
:1003F0000F91FF90EF90DF90CF90BF90AF909F90C4
:100400008F907F906F905F904F903F902F901F90B4
:100410000F900FBE0F90089581E008950F920FB6D0
:10042000F8940F921F9211242F923F924F925F9255
:100430006F927F928F929F92AF92BF92CF92DF92F4
:10044000EF92FF920F931F932F933F934F935F93DE
:100450006F937F938F939F93AF93BF93CF93DF93CC
:10046000EF93FF93A0910507B09106070DB60D928B
:100470000EB60D920E949209A0910507B091060751
:10048000CD91CDBFDD91DEBFFF91EF91DF91CF9197
:10049000BF91AF919F918F917F916F915F914F919C
:1004A0003F912F911F910F91FF90EF90DF90CF9090
:1004B000BF90AF909F908F907F906F905F904F9084
:1004C0003F902F901F900F900FBE0F9008950F92A6
:1004D0000FB6F8940F921F9211242F923F924F92D1
:1004E0005F926F927F928F929F92AF92BF92CF92C4
:1004F000DF92EF92FF920F931F932F933F934F93AF
:100500005F936F937F938F939F93AF93BF93CF939B
:10051000DF93EF93FF93A0910507B09106070DB607
:100520000D920EB60D920E948D0781110E949209C4
:10053000A0910507B0910607CD91CDBFDD91DEBF3B
:10054000FF91EF91DF91CF91BF91AF919F918F91EB
:100550007F916F915F914F913F912F911F910F91DB
:10056000FF90EF90DF90CF90BF90AF909F908F90D3
:100570007F906F905F904F903F902F901F900F90C3
:100580000FBE0F9008950E94670218950FB6F89459
:100590000F92FC01828D811102C081E001C080E0D8
:1005A0000F900FBE08950FB6F8940F92FC01228DA4
:1005B000838D281302C081E001C080E00F900FBE40
:1005C00008950F931F93CF93DF93EC01042F1A8D9F
:1005D0004C8D4423B9F1011116C050E08A819B81F2
:1005E0000E94800D2C8D8A819B81820F911D9B839F
:1005F0008A832C813D818217930720F1888199811C
:100600009B838A831FC050E08E819F810E94800D52
:100610008C8D90E09195819591092E813F81280FD5
:10062000391F3F832E83488159812417350730F4C1
:100630002C813D81820F931F9F838E83023011F4A2
:10064000111111501F5F1A8F80E0DF91CF911F9120
:100650000F9108951F93CF93DF93EC010FB6F89499
:100660000F921E8D0BC08989882351F0CE014196CF
:100670000E94F80981110E94FF0A115011169CF383
:100680008FEF8E8F0F900FBE0FB6F8940F921D8DC7
:100690000BC08885882351F0CE0108960E94F80986
:1006A00081110E94FF0A115011169CF38FEF8D8F5C
:1006B0000F900FBEDF91CF911F9108950F931F935D
:1006C000CF93DF93FC01362F892B09F44DC0238D86
:1006D000222309F44BC0022F10E08FEF9FEFB801E7
:1006E0000E946C0D448D842F90E06817790708F400
:1006F0003FC0EF010FB6F8940F9260817181FB014A
:10070000249FE00DF11D1124FD83EC831A8E7B8361
:100710006A8301501109809FA001819F500D909F15
:10072000500D1124CB01840F951F9F838E838FEF73
:100730008D8F8E8F31110CC08885882389F0CE0172
:1007400008960E94F809882359F00E940E0208C0FA
:10075000CE0108960E940001CE0141960E94000140
:100760000F900FBE81E005C080E003C080E001C0B3
:1007700080E0DF91CF911F910F9108950F931F9308
:10078000F801611103C01183008302C051834083CB
:10079000838F648F61E0CF010E945E031F910F91F0
:1007A0000895DF92EF92FF920F931F93CF93DF9301
:1007B000382FE62F882329F1682F70E08FEF9FEF05
:1007C0000E946C0D8E2F90E068177907E8F03E9F2D
:1007D000C0011124813E2FEF9207C8F4D42EDE2FE2
:1007E000C32F4F960E94C5007C01009791F08C01A9
:1007F0002D2DAC01415E5F4F6D2F8C2F0E94BE03EB
:1008000008C0E12CF12C05C0E12CF12C02C0E12C38
:10081000F12CC701DF91CF911F910F91FF90EF90C5
:10082000DF900895CF93882361F0861768F0C62F74
:1008300042E060E00E94D103009741F0FC01C28FCA
:1008400005C080E090E002C080E090E0CF91089584
:10085000CF92DF92EF92FF920F931F93CF93DF938C
:1008600000D000D01F92CDB7DEB78C017B015D8335
:100870004C83C22ED12C0FB6F8940F92F801928DB2
:10088000838D981718F0F2E0CF1219C04C2DB701E4
:10089000C8010E94E102F8019189992349F0C80139
:1008A00041960E94F809882331F00E940E0203C08D
:1008B00081110E940E020F900FBE81E04DC08C810D
:1008C0009D81892B21F40F900FBE80E045C0D1108F
:1008D00006C0CE0101960E94B50ADD24D3940F9084
:1008E0000FBE0E9487070FB6F8940F92F801858D0E
:1008F0008F3F09F4158EF801868D8F3F09F4168E0F
:100900000F900FBEBE016C5F7F4FCE0101960E941B
:10091000C00A81111BC0C8010E94D302882381F044
:100920006C817D81C80108960E94E609C8010E9479
:100930002A030E94A70881119ECF0E940E029BCF1E
:10094000C8010E942A030E94A70895CFC8010E94EF
:100950002A030E94A70880E00F900F900F900F903D
:100960000F90DF91CF911F910F91FF90EF90DF904B
:10097000CF900895FF920F931F93CF93DF9300D0F2
:1009800000D01F92CDB7DEB78C017D836C83F12C34
:100990000FB6F8940F92F801828D882381F0815070
:1009A000828F8085882339F0C80108960E94F80953
:1009B00081110E940E020F900FBE81E053C08C8106
:1009C0009D81892B21F40F900FBE80E04BC0F11068
:1009D00006C0CE0101960E94B50AFF24F3940F9041
:1009E0000FBE0E9487070FB6F8940F92F801858D0D
:1009F0008F3F09F4158EF801868D8F3F09F4168E0E
:100A00000F900FBEBE016C5F7F4FCE0101960E941A
:100A1000C00A81111BC0C8010E94C602882381F050
:100A20006C817D81C80141960E94E609C8010E943F
:100A30002A030E94A7088111ABCF0E940E02A8CF03
:100A4000C8010E942A030E94A708A2CFC8010E94E1
:100A50002A030E94A708C8010E94C602882309F43D
:100A600097CF80E00F900F900F900F900F90DF9135
:100A7000CF911F910F91FF9008950FB6F8940F92A8
:100A8000FC01828D0F900FBE0895E091CD06F0918C
:100A9000CE068081811107C08FEF9FEF9093AE0645
:100AA0008093AD060895E091CD06F091CE060580C5
:100AB000F681E02D808191819093AE068093AD0602
:100AC00008956F927F928F929F92AF92BF92CF9232
:100AD000DF92EF920F931F93CF93DF93CDB7DEB7E3
:100AE0004C01F5018789908D215031093C01620E3E
:100AF000731E6115710589F415C0822F90E0FB010A
:100B0000E80FF91F3081D501A80FB91F59963C9302
:100B10008081882329F02F5F01C020E0283068F30E
:100B2000F50110A2F3E0FE1520F40F2EF3E0EF2EF6
:100B3000F02DF501E68AC50102960E940E01C5015D
:100B40000C960E940E01F501B186A08684E090E02B
:100B50008E19910995878487B38AA28AA801B40166
:100B6000C3010E947301F50191838083C114D104F4
:100B700019F0F601B182A082DF91CF911F910F9100
:100B8000EF90DF90CF90BF90AF909F908F907F902D
:100B90006F9008958091E1068230E0F30E940E028A
:100BA000F9CFCF93C0E010C08C2F90E09C01220FB2
:100BB000331F220F331F220F331F820F931F8F51BA
:100BC000994F0E940001CF5FC43070F388ED96E02A
:100BD0000E9400018FEC96E00E94000182EC96E0FA
:100BE0000E94000189EB96E00E94000188ED96E0EA
:100BF0009093CE068093CD068FEC96E09093CC0632
:100C00008093CB06CF910895CF93DF93EC010FB67D
:100C1000F8940F928091B8068F5F8093B806809108
:100C2000050790910607892B59F4D0930607C093C6
:100C300005078091B806813099F40E94D10510C053
:100C40008091B40681110CC0E0910507F091060770
:100C500096898E89891720F0D0930607C0930507DF
:100C60008091AF068F5F8093AF068E899091B50615
:100C7000981710F48093B50690E0FC01EE0FFF1F6B
:100C8000EE0FFF1FEE0FFF1F8E0F9F1FFC01EF5196
:100C9000F94F0180F281E02DFD83EC838481958101
:100CA0009F838E83A481B581CE01029613969C9377
:100CB0008E93129795838483EE89F0E0CF01880F9D
:100CC000991F880F991F880F991FE80FF91FEF517F
:100CD000F94FFB87EA8780818F5F80830F900FBE7B
:100CE0008091B406882351F0E0910507F091060742
:100CF00096898E89981710F40E940E02DF91CF9189
:100D00000895FF920F931F93CF93DF93EC01F62E7C
:100D10000091B6061091B7068091050790910607DD
:100D200002960E944301CF3F8FEFD807B1F5FF2015
:100D3000A1F1E9EBF6E0A181B281C0910507D09164
:100D40000607BD83AC83C0910507D09106071496B2
:100D50008D919C9115979F838E831496CD91DC91F4
:100D60001597809105079091060702969B838A83C9
:100D70008091050790910607029615969C938E9395
:100D80001497A0910507B09106071B96FC93EE936C
:100D90001A9780818F5F80832FC0C00FD11FE09191
:100DA0000507F0910607D383C283C017D10768F403
:100DB00060910507709106078091CB069091CC0653
:100DC0006E5F7F4F0E94120117C0609105077091FE
:100DD00006078091CD069091CE066E5F7F4F0E94F0
:100DE00012018091AD069091AE06C817D90720F484
:100DF000D093AE06C093AD06DF91CF911F910F91B6
:100E0000FF9008952F923F924F925F926F927F9240
:100E10008F929F92AF92BF92CF92DF92EF92FF920A
:100E20000F931F93CF93DF933C011B015A012901BC
:100E3000CA010E94C5006C01892B99F086E290E0FE
:100E40000E94C500EC01892B41F086E2FE0111925F
:100E50008A95E9F7D88ECF8A06C0C6010E94FF00A6
:100E600002C0C0E0D0E0209791F0950140E050E052
:100E7000812C912C5E016701E02E8201B101C3013A
:100E80000E946105CE010E94040681E001C08FEF3F
:100E9000DF91CF911F910F91FF90EF90DF90CF9056
:100EA000BF90AF909F908F907F906F905F904F908A
:100EB0003F902F900895EF92FF920F930F2EFBEA31
:100EC000EF2EF6E0FF2EF02D00E020E030E045E5CB
:100ED00050E061E670E08AEC95E00E940207813004
:100EE00081F4F8948FEF9FEF9093AE068093AD0658
:100EF00081E08093B4061092B7061092B6060E9465
:100F0000DF01809160000F91FF90EF900895809134
:100F1000AA068F5F8093AA0608950F931F93CF931D
:100F2000DF938091AA06811101C1C091B606D091CC
:100F3000B7068E010F5F1F4F1093B7060093B606DA
:100F400001151105B9F48091CD069091CE0620913E
:100F5000CB063091CC063093CE062093CD069093ED
:100F6000CC068093CB068091B0068F5F8093B0064D
:100F70000E9445058091AD069091AE0608171907AD
:100F800020F480E0B8C081E001C080E0E091CD06AF
:100F9000F091CE069081911107C02FEF3FEF309373
:100FA000AE062093AD06A7C0E091CD06F091CE0627
:100FB0000580F681E02D0680F781E02D22813381C6
:100FC0000217130728F43093AE062093AD0693C0A2
:100FD000A285B3852481358146815781E9015D83EE
:100FE0004C832681378144815581E9015B834A83A3
:100FF00011962D913C911297AF014E5F5F4F2417D0
:10100000350731F42681378112963C932E93119740
:10101000138612869C9191509C93A489B589109750
:1010200019F12685378560897189E9017D836C8393
:101030002089318966857785E9017B836A831196EA
:101040006D917C9112979F01245F3F4F6217730748
:1010500031F42089318912963C932E931197158A89
:10106000148A9C9191509C9326899091B506921771
:1010700010F42093B50630E0D901AA0FBB1FAA0FC8
:10108000BB1FAA0FBB1F2A0F3B1FD901AF51B94F7E
:1010900011960D90BC91A02DB583A48314962D912B
:1010A0003C9115973783268314962D913C91159783
:1010B000E9015B834A8315965C934E931497A68946
:1010C000B0E09D01220F331F220F331F220F331F69
:1010D000A20FB31FAF51B94FB387A2879C919F5FF7
:1010E0009C932689E0910507F0910607968992174F
:1010F00008F449CF4BCFE0910507F0910607268908
:1011000030E0F901EE0FFF1FEE0FFF1FEE0FFF1F84
:101110002E0F3F1FF901EF51F94F9081923008F0E7
:1011200081E09091B10691110CC00CC08091B20683
:101130009091B30601969093B3068093B20680E037
:1011400001C081E0DF91CF911F910F910895CF935E
:10115000DF930FB6F8940F928091AA068150809386
:10116000AA068091AA068111BFC08091B80681119C
:1011700096C0BDC0E091C706F091C8060680F78111
:10118000E02DA489B589C685D785808991899D83FD
:101190008C83C089D189868597859B838A831196A4
:1011A0002D913C911297CF010C962817390731F4F5
:1011B0008089918912969C938E931197158A148A2F
:1011C0008C9181508C93A285B385C481D581868111
:1011D00097819D838C83C681D781848195819B83F0
:1011E0008A8311968D919C9112979F012E5F3F4F9C
:1011F0008217930731F48681978112969C938E9380
:101200001197138612868C9181508C9386899091C8
:10121000B506981710F48093B50690E0DC01AA0F8C
:10122000BB1FAA0FBB1FAA0FBB1F8A0F9B1FDC018E
:10123000AF51B94F11960D90BC91A02DB583A483E9
:1012400014968D919C911597978386831496CD91D2
:10125000DC9115973B832A8315963C932E93149724
:10126000A689B0E0CD01880F991F880F991F880FBC
:10127000991FA80FB91FAF51B94FB387A2878C919F
:101280008F5F8C939689A0910507B09106075696BB
:101290008C91981730F081E08093B10602C0E0E0B5
:1012A000F0E08091C206811165CFEF2B11F00E9412
:1012B0004505C091B206D091B306209769F00E940F
:1012C0008D07882319F081E08093B1062197B9F743
:1012D0001092B3061092B2068091B106882331F0C5
:1012E0000E940E0281E003C080E001C080E00F9008
:1012F0000FBEDF91CF910895CF93DF93EC01892B3F
:1013000049F00E94870760E0CE010E9481060E949A
:10131000A70801C080E0811102C00E940E02DF9187
:10132000CF9108958091AA06882321F081E08093CF
:10133000B10608951092B1062091B50601C0215062
:10134000822F90E0FC01EE0FFF1FEE0FFF1FEE0F4C
:10135000FF1FE80FF91FEF51F94F3081332379F365
:10136000AC01440F551F440F551F440F551F480F24
:10137000591FDF010180F281E02D0280F381E02D11
:101380001296FC93EE9311974C51594FE417F507C1
:1013900029F442815381FD0152834183FC01EE0F08
:1013A000FF1FEE0FFF1FEE0FFF1F8E0F9F1FFC0191
:1013B000EF51F94F0180F281E02D86819781909362
:1013C0000607809305072093B5060895CF93DF9312
:1013D000EB016091050770910607645F7F4F0E94E3
:1013E000120161E0CE010E948106DF91CF91089544
:1013F000CF93DF93DC011596ED91FC911697068053
:10140000F781E02DA489B589C685D7858089918922
:101410009D838C83C089D189868597859B838A83A8
:1014200011968D919C9112979F01245F3F4F8217D7
:10143000930731F48089918912969C938E9311972A
:10144000158A148A8C9181508C938091AA068111FF
:1014500060C0A285B385C481D581868197819D8333
:101460008C83C681D781848195819B838A831196E1
:101470008D919C9112979F012E5F3F4F821793078A
:1014800031F48681978112969C938E9311971386DF
:1014900012868C9181508C9386899091B50698170D
:1014A00010F48093B50690E0DC01AA0FBB1FAA0FD1
:1014B000BB1FAA0FBB1F8A0F9B1FDC01AF51B94F87
:1014C00011960D90BC91A02DB583A48314968D9197
:1014D0009C911597978386831496CD91DC911597EF
:1014E0003B832A8315963C932E931497A689B0E0EC
:1014F000CD01880F991F880F991F880F991FA80F7A
:10150000B91FAF51B94FB387A2878C918F5F8C936E
:101510001CC042EC56E0DA011196CD91DC91129795
:10152000D787C6878C819D81918B808B8C819D8193
:10153000DC0113963C932E9312973D832C83558B9D
:10154000448BDA018C918F5F8C939689E09105072B
:10155000F09106078689891720F481E08093B1060F
:1015600001C080E0DF91CF9108952091B006FC0189
:1015700020832091B6063091B706328321830895E7
:101580001F93CF93DF930FB6F8940F92E091B606B6
:10159000F091B706DC0111964D915C911297DF0135
:1015A000A41BB50BEB01288139812F3FDFEF3D07ED
:1015B000F9F0EC011881C091B0061C1741F0E41756
:1015C000F50728F0FB011182108281E012C0A217FA
:1015D000B30748F4FB012A1B3B0B318320830E9495
:1015E000B50A80E006C0DB011D921C9281E001C0BB
:1015F00080E00F900FBEDF91CF911F91089581E0A1
:101600008093B1060895883000F561110EC04AB389
:1016100021E030E0B90102C0660F771F8A95E2F73A
:10162000CB01809584238ABB0895613009F075C091
:101630004AB321E030E0B90102C0660F771F8A95F6
:10164000E2F7CB01842B8ABB089598EF980F98306E
:1016500000F561110EC047B321E030E0B90102C0CE
:10166000660F771F9A95E2F7CB018095842387BB9D
:101670000895613009F051C047B321E030E0B9016D
:1016800002C0660F771F9A95E2F7CB01842B87BBC8
:10169000089590EF980F9830F8F461110EC044B39C
:1016A00021E030E0B90102C0660F771F9A95E2F79A
:1016B000CB018095842384BB0895613071F544B3D8
:1016C00021E030E0B90102C0660F771F9A95E2F77A
:1016D000CB01842B84BB089588518830F0F46111CC
:1016E0000EC041B321E030E0B90102C0660F771FA0
:1016F0008A95E2F7CB018095842381BB0895613000
:1017000061F441B321E030E0B90102C0660F771FF8
:101710008A95E2F7CB01842B81BB0895883000F5D0
:1017200061110EC04BB321E030E0B90102C0660F79
:10173000771F8A95E2F7CB01809584238BBB0895B0
:10174000613009F075C04BB321E030E0B90102C04F
:10175000660F771F8A95E2F7CB01842B8BBB089528
:1017600098EF980F983000F561110EC048B321E052
:1017700030E0B90102C0660F771F9A95E2F7CB01FE
:101780008095842388BB0895613009F051C048B327
:1017900021E030E0B90102C0660F771F9A95E2F7A9
:1017A000CB01842B88BB089590EF980F9830F8F404
:1017B00061110EC045B321E030E0B90102C0660FEF
:1017C000771F9A95E2F7CB018095842385BB089516
:1017D000613071F545B321E030E0B90102C0660F18
:1017E000771F9A95E2F7CB01842B85BB089588512A
:1017F0008830F0F461110EC042B321E030E0B9014D
:1018000002C0660F771F8A95E2F7CB01809584238B
:1018100082BB0895613061F442B321E030E0B90148
:1018200002C0660F771F8A95E2F7CB01842B82BB3B
:101830000895883058F429B330E0A90102C05595C5
:1018400047958A95E2F7CA018170089528EF280F1D
:10185000283048F486B390E002C0959587952A9584
:10186000E2F78170089520EF280F283048F483B301
:1018700090E002C0959587952A95E2F781700895CA
:1018800028EE280F283050F490B3892F90E002C042
:10189000959587952A95E2F7817008950895CF93DD
:1018A000C82F0E94190C61E0811160E08C2F0E940A
:1018B0008E0BCF9108951F920F920FB60F921124A5
:1018C0002F933F934F935F936F937F938F939F9348
:1018D000AF93BF93EF93FF93E0911107F09112073D
:1018E0000995FF91EF91BF91AF919F918F917F915A
:1018F0006F915F914F913F912F910F900FBE0F907D
:101900001F9018951F920F920FB60F9211242F93CC
:101910003F934F935F936F937F938F939F93AF9377
:10192000BF93EF93FF93E0910D07F0910E07099598
:10193000FF91EF91BF91AF919F918F917F916F91A7
:101940005F914F913F912F910F900FBE0F901F907D
:1019500018951F920F920FB60F9211242F933F9359
:101960004F935F936F937F938F939F93AF93BF93A7
:10197000EF93FF93E0910F07F09110070995FF9106
:10198000EF91BF91AF919F918F917F916F915F91F7
:101990004F913F912F910F900FBE0F901F90189570
:1019A0001F920F920FB60F9211242F933F934F93D4
:1019B0005F936F937F938F939F93AF93BF93EF93B7
:1019C000FF93E0911507F09116070995FF91EF91AC
:1019D000BF91AF919F918F917F916F915F914F9147
:1019E0003F912F910F900FBE0F901F9018951F924F
:1019F0000F920FB60F9211242F933F934F935F9343
:101A00006F937F938F939F93AF93BF93EF93FF93C6
:101A1000E0911307F09114070995FF91EF91BF91A1
:101A2000AF919F918F917F916F915F914F913F9176
:101A30002F910F900FBE0F901F9018951F920F922D
:101A40000FB60F9211242F933F934F935F936F9391
:101A50007F938F939F93AF93BF93EF93FF93E09107
:101A60001707F09118070995FF91EF91BF91AF917A
:101A70009F918F917F916F915F914F913F912F91A6
:101A80000F900FBE0F901F9018951F920F920FB6D8
:101A90000F9211242F933F934F935F936F937F93F4
:101AA0008F939F93AF93BF93EF93FF93E0911907A9
:101AB000F0911A070995FF91EF91BF91AF919F9116
:101AC0008F917F916F915F914F913F912F910F90E7
:101AD0000FBE0F901F901895AA1BBB1B51E107C0AA
:101AE000AA1FBB1FA617B70710F0A61BB70B881FAE
:101AF000991F5A95A9F780959095BC01CD0108953D
:101B0000FB01DC0102C001900D9241505040D8F71A
:061B10000895F894FFCFD8
:061B16000349444C4500A8
:00000001FF
