S00C0000636F64652E737265637D
S11300000C9434000C943E000C943E000C943E007E
S11300100C943E000C943E000C943E000C943E0064
S11300200C943E000C943E000C943E000C943E0054
S11300300C943E000C943E000C943E000C943E0044
S11300400C943E000C943E000C943E000C943E0034
S11300500C943E008F00AB00C800E50002011F01B4
S11300603C0159017601930111241FBECFE5D8E06C
S1130070DEBFCDBF0E9440000C9406030C94000028
S11300800E94450080E090E0089561E081E10E94D3
S1130090B00161E082E10E94B00161E083E10E946D
S11300A0B00161E084E10E94B00161E085E10E9459
S11300B0B00161E086E10E94B00161E087E10E9445
S11300C0B00160E082E00E94B00182E00E94FC0284
S11300D060E08EE00E94B0018EE00E94FC02C0E06D
S11300E082E00E94C60281110AC0CF5F2FEF89E629
S11300F098E1215080409040E1F700C000008EE07C
S11301000E94C602811101C0C0E08C2F90E08A30A9
S1130110910530F7FC01E65DFF4F0C94000361E0AC
S113012081E10E943B0261E082E10E943B0261E0C6
S113013083E10E943B0261E084E10E943B0261E0B2
S113014085E10E943B0261E086E10E943B0261E09E
S113015087E10E943B0260E081E10E943B0261E092
S113016082E10E943B0261E083E10E943B0260E085
S113017084E10E943B0260E085E10E943B0260E072
S113018086E10E943B0260E087E10E943B02A8CF27
S113019061E081E10E943B0261E082E10E943B0256
S11301A060E083E10E943B0261E084E10E943B0243
S11301B061E085E10E943B0260E086E10E943B022F
S11301C061E087E10E943B028BCF61E081E10E9404
S11301D03B0261E082E10E943B0261E083E10E9414
S11301E03B0261E084E10E943B0260E085E10E9401
S11301F03B0260E086E10E943B0261E087E10E94ED
S11302003B026ECF60E081E10E943B0261E082E14B
S11302100E943B0261E083E10E943B0260E084E1D2
S11302200E943B0260E085E10E943B0261E086E1BE
S11302300E943B0261E087E10E943B0251CF61E0F2
S113024081E10E943B0260E082E10E943B0261E0A6
S113025083E10E943B0261E084E10E943B0260E092
S113026085E10E943B0261E086E10E943B0261E07D
S113027087E10E943B0234CF61E081E10E943B02AE
S113028060E082E10E943B0261E083E10E943B0264
S113029061E084E10E943B0261E085E10E943B024F
S11302A061E086E10E943B0261E087E10E943B023B
S11302B017CF61E081E10E943B0261E082E10E948C
S11302C03B0261E083E10E943B0260E084E10E9422
S11302D03B0260E085E10E943B0260E086E10E940F
S11302E03B0260E087E10E943B02FACE61E081E1DB
S11302F00E943B0261E082E10E943B0261E083E1F3
S11303000E943B0261E084E10E943B0261E085E1DE
S11303100E943B0261E086E10E943B0261E087E1CA
S11303200E943B02DDCE61E081E10E943B0261E07C
S113033082E10E943B0261E083E10E943B0261E0B2
S113034084E10E943B0260E085E10E943B0261E09F
S113035086E10E943B0261E087E10E943B02C0CE3D
S1130360883000F561110EC04AB321E030E0B901D4
S113037002C0660F771F8A95E2F7CB01809584232C
S11303808ABB0895613009F075C04AB321E030E0BA
S1130390B90102C0660F771F8A95E2F7CB01842B5F
S11303A08ABB089598EF980F983000F561110EC03C
S11303B047B321E030E0B90102C0660F771F9A9578
S11303C0E2F7CB018095842387BB0895613009F05F
S11303D051C047B321E030E0B90102C0660F771F76
S11303E09A95E2F7CB01842B87BB089590EF980F81
S11303F09830F8F461110EC044B321E030E0B90143
S113040002C0660F771F9A95E2F7CB01809584238B
S113041084BB0895613071F544B321E030E0B90143
S113042002C0660F771F9A95E2F7CB01842B84BB39
S1130430089588518830F0F461110EC044B321E06E
S113044030E0B90102C0660F771F8A95E2F7CB014D
S11304508095842384BB0895613061F444B321E022
S113046030E0B90102C0660F771F8A95E2F7CB012D
S1130470842B84BB0895883000F561110EC04BB302
S113048021E030E0B90102C0660F771F8A95E2F7D8
S1130490CB01809584238BBB0895613009F075C02E
S11304A04BB321E030E0B90102C0660F771F8A9593
S11304B0E2F7CB01842B8BBB089598EF980F98300B
S11304C000F561110EC048B321E030E0B90102C06B
S11304D0660F771F9A95E2F7CB018095842388BB3A
S11304E00895613009F051C048B321E030E0B9010A
S11304F002C0660F771F9A95E2F7CB01842B88BB65
S1130500089590EF980F9830F8F461110EC045B338
S113051021E030E0B90102C0660F771F9A95E2F737
S1130520CB018095842385BB0895613071F545B373
S113053021E030E0B90102C0660F771F9A95E2F717
S1130540CB01842B85BB089588518830F0F4611168
S11305500EC042B321E030E0B90102C0660F771F3C
S11305608A95E2F7CB018095842382BB089561309C
S113057061F442B321E030E0B90102C0660F771F95
S11305808A95E2F7CB01842B82BB0895883058F416
S113059029B330E0A90102C0559547958A95E2F741
S11305A0CA018170089528EF280F283048F486B3D3
S11305B090E002C0959587952A95E2F78170089599
S11305C020EF280F283048F483B390E002C09595BB
S11305D087952A95E2F78170089528EE280F283030
S11305E050F490B3892F90E002C0959587952A9591
S11305F0E2F781700895089561E00E943B02089536
S1130600EE0FFF1F0590F491E02D0994F894FFCFAD
S9030000FC
