:100000000C942A000C9419030C9440030C9467037D
:100010000C9447000C9447000C9441040C94470046
:100020000C9447000C9447000C94B9030C94920371
:100030000C9447000C9447000C9447000C94470024
:100040000C9447000C9447000C9447000C94470014
:100050000C94470011241FBECFE5D8E0DEBFCDBF12
:1000600010E0A0E6B0E0E8E7FBE002C005900D92EA
:10007000AE36B107D9F720E0AEE6B0E001C01D9280
:10008000AD37B207E1F70E9449000C94BA050C9411
:1000900000000E94840080E090E0089580916E004E
:1000A00081110CC080E090E00E94360462E080E0A4
:1000B0000E94E00381E080936E000895813019F57D
:1000C0000E943904BC0180E090E00E9497042091D6
:1000D00060003091610040916200509163000E9485
:1000E000250520E030E048E851E40E9425050E9403
:1000F00068047093700060936F0062E081E00E947A
:10010000E00310926E0008950E948E0362E081E089
:100110000E94E0038EE490E00E943C0461E089E1EB
:100120000E94030260E08EE10E9403020E945901D6
:1001300061E089E10E948E0225E32A95F1F7000033
:1001400060E089E10E948E020E94A00184E690E0B6
:100150000E94A40180916F00909170000E94B701ED
:1001600089E690E00E94A4018FEF93ED20E3815097
:1001700090402040E1F700C00000DACF811109C0B3
:1001800060E08AE00E948E0261E089E00E948E02B7
:100190000895813041F460E08AE00E948E0260E0C0
:1001A00089E00E948E02089561E08BE00E948E0239
:1001B0008FE99FE00197F1F700C0000060E08BE05D
:1001C0000E948E020895CF93C82F80E00E94BE0047
:1001D000C4FB662760F984E00E948E02C5FB662797
:1001E00060F985E00E948E02C6FB662760F986E012
:1001F0000E948E026C2F661F6627661F87E00E9492
:100200008E020E94D4006C2F617084E00E948E02E6
:10021000C1FB662760F985E00E948E02C2FB66275B
:1002200060F986E00E948E02C3FB662760F987E0D2
:100230000E948E020E94D400CF910895CF93C82FC0
:1002400081E00E94BE00C4FB662760F984E00E9442
:100250008E02C5FB662760F985E00E948E02C6FB10
:10026000662760F986E00E948E026C2F661F662763
:10027000661F87E00E948E020E94D4006C2F61707E
:1002800084E00E948E02C1FB662760F985E00E942F
:100290008E02C2FB662760F986E00E948E02C3FBD5
:1002A000662760F987E00E948E020E94D400CF91F9
:1002B000089561E084E00E94030261E085E00E940D
:1002C000030261E086E00E94030261E087E00E9491
:1002D000030261E08BE00E94030261E08AE00E9479
:1002E000030261E089E00E94030282E00E941E0195
:1002F0002FEF86E791E0215080409040E1F700C069
:10030000000088E20E941E018FE99FE00197F1F74B
:1003100000C000008FE00E941E018FE99FE001975E
:10032000F1F700C0000081E00E941E018FE39FE111
:100330000197F1F700C0000086E00E941E010895B9
:1003400081E00E941E0108950F931F93CF938C01AB
:10035000C0E003C00E94E300CF5FF801EC0FF11D85
:1003600080818111F7CFCF911F910F910895EF9266
:10037000FF921F93CF93DF93CDB7DEB72A970FB6C7
:10038000F894DEBF0FBECDBF7C01009721F480E35F
:100390000E94E3002CC099231CF48DE20E94E3002C
:1003A00010E012C0C7016AE070E00E949205E1E02F
:1003B000F0E0EC0FFD1FE10FF11D17FDFA95805DD8
:1003C0008083E62EF72E1F5F1E141F045CF311506E
:1003D0000CC0E1E0F0E0EC0FFD1FE10FF11D17FD97
:1003E000FA9580810E94E3001150112394F72A9618
:1003F0000FB6F894DEBF0FBECDBFDF91CF911F9136
:10040000FF90EF900895883000F561110EC04AB357
:1004100021E030E0B90102C0660F771F8A95E2F74C
:10042000CB01809584238ABB0895613009F075C0A3
:100430004AB321E030E0B90102C0660F771F8A9508
:10044000E2F7CB01842B8ABB089598EF980F983080
:1004500000F561110EC047B321E030E0B90102C0E0
:10046000660F771F9A95E2F7CB018095842387BBAF
:100470000895613009F051C047B321E030E0B9017F
:1004800002C0660F771F9A95E2F7CB01842B87BBDA
:10049000089590EF980F9830F8F461110EC044B3AE
:1004A00021E030E0B90102C0660F771F9A95E2F7AC
:1004B000CB018095842384BB0895613071F544B3EA
:1004C00021E030E0B90102C0660F771F9A95E2F78C
:1004D000CB01842B84BB089588518830F0F46111DE
:1004E0000EC041B321E030E0B90102C0660F771FB2
:1004F0008A95E2F7CB018095842381BB0895613012
:1005000061F441B321E030E0B90102C0660F771F0A
:100510008A95E2F7CB01842B81BB0895883000F5E2
:1005200061110EC04BB321E030E0B90102C0660F8B
:10053000771F8A95E2F7CB01809584238BBB0895C2
:10054000613009F075C04BB321E030E0B90102C061
:10055000660F771F8A95E2F7CB01842B8BBB08953A
:1005600098EF980F983000F561110EC048B321E064
:1005700030E0B90102C0660F771F9A95E2F7CB0110
:100580008095842388BB0895613009F051C048B339
:1005900021E030E0B90102C0660F771F9A95E2F7BB
:1005A000CB01842B88BB089590EF980F9830F8F416
:1005B00061110EC045B321E030E0B90102C0660F01
:1005C000771F9A95E2F7CB018095842385BB089528
:1005D000613071F545B321E030E0B90102C0660F2A
:1005E000771F9A95E2F7CB01842B85BB089588513C
:1005F0008830F0F461110EC042B321E030E0B9015F
:1006000002C0660F771F8A95E2F7CB01809584239D
:1006100082BB0895613061F442B321E030E0B9015A
:1006200002C0660F771F8A95E2F7CB01842B82BB4D
:1006300008951F920F920FB60F9211242F933F939C
:100640004F935F936F937F938F939F93AF93BF93DA
:10065000EF93FF93E0917500F09176000995FF917B
:10066000EF91BF91AF919F918F917F916F915F912A
:100670004F913F912F910F900FBE0F901F901895A3
:100680001F920F920FB60F9211242F933F934F9307
:100690005F936F937F938F939F93AF93BF93EF93EA
:1006A000FF93E0917100F09172000995FF91EF9135
:1006B000BF91AF919F918F917F916F915F914F917A
:1006C0003F912F910F900FBE0F901F9018951F9282
:1006D0000F920FB60F9211242F933F934F935F9376
:1006E0006F937F938F939F93AF93BF93EF93FF93FA
:1006F000E0917300F09174000995FF91EF91BF9123
:10070000AF919F918F917F916F915F914F913F91A9
:100710002F910F900FBE0F901F9018958FB7806884
:100720008FBF08951F920F920FB60F9211242F932F
:100730003F934F935F936F937F938F939F93AF9369
:10074000BF93EF93FF93E0917900F0917A000995C0
:10075000FF91EF91BF91AF919F918F917F916F9199
:100760005F914F913F912F910F900FBE0F901F906F
:1007700018951F920F920FB60F9211242F933F934B
:100780004F935F936F937F938F939F93AF93BF9399
:10079000EF93FF93E0917700F09178000995FF9136
:1007A000EF91BF91AF919F918F917F916F915F91E9
:1007B0004F913F912F910F900FBE0F901F90189562
:1007C0009FB59E7F9FBD9FB59D7F9FBD9FB5977F26
:1007D0009FBD9FB59F7E9FBD813021F48EB5806403
:1007E0008EBD05C0811103C08EB58F7B8EBD89B7CC
:1007F000806289BF61110AC08EB581608EBD8EB5E1
:100800008D7F8EBD8EB58B7F8EBD0895613051F486
:100810008EB58E7F8EBD8EB582608EBD8EB58B7F80
:100820008EBD0895623051F48EB581608EBD8EB557
:1008300082608EBD8EB58B7F8EBD0895633051F47E
:100840008EB58E7F8EBD8EB58D7F8EBD8EB584604C
:100850008EBD0895643049F48EB581608EBD8EB52D
:100860008D7F8EBD8EB584608EBD08959DBD8CBD7F
:10087000089586B597B5089590937C0080937B008A
:1008800008951F920F920FB60F9211242F933F934A
:100890004F935F936F937F938F939F93AF93BF9388
:1008A000EF93FF93E0917B00F0917C000995FF911D
:1008B000EF91BF91AF919F918F917F916F915F91D8
:1008C0004F913F912F910F900FBE0F901F90189551
:1008D0000E94040588F09F5798F0B92F9927B751C7
:1008E000B0F0E1F0660F771F881F991F1AF0BA95D4
:1008F000C9F714C0B13091F00E941E05B1E008950F
:100900000C941E05672F782F8827B85F39F0B93F00
:10091000CCF3869577956795B395D9F73EF4909586
:100920008095709561957F4F8F4F9F4F0895E89404
:1009300009C097FB3EF490958095709561957F4F27
:100940008F4F9F4F9923A9F0F92F96E9BB279395D5
:10095000F695879577956795B795F111F8CFFAF4E5
:10096000BB0F11F460FF1BC06F5F7F4F8F4F9F4F16
:1009700016C0882311F096E911C0772321F09EE874
:10098000872F762F05C0662371F096E8862F70E0DA
:1009900060E02AF09A95660F771F881FDAF7880FB4
:1009A0009695879597F9089597F99F6780E870E085
:1009B00060E008959FEF80EC089500240A941616D5
:1009C000170618060906089500240A94121613063D
:1009D000140605060895092E0394000C11F48823CB
:1009E00052F0BB0F40F4BF2B11F460FF04C06F5FE7
:1009F0007F4F8F4F9F4F089557FD9058440F551FBD
:100A000059F05F3F71F04795880F97FB991F61F090
:100A10009F3F79F087950895121613061406551F07
:100A2000F2CF4695F1DF08C0161617061806991F73
:100A3000F1CF86957105610508940895E894BB2768
:100A400066277727CB0197F908950E9438050C9403
:100A5000EB040E94DD0438F00E94E40420F09523AA
:100A600011F00C94D4040C94DA0411240C941F0596
:100A70000E94FC0470F3959FC1F3950F50E0551F41
:100A8000629FF001729FBB27F00DB11D639FAA27E3
:100A9000F00DB11DAA1F649F6627B00DA11D661F32
:100AA000829F2227B00DA11D621F739FB00DA11D53
:100AB000621F839FA00D611D221F749F3327A00D0D
:100AC000611D231F849F600D211D822F762F6A2FA9
:100AD00011249F5750409AF0F1F088234AF0EE0F0E
:100AE000FF1FBB1F661F771F881F91505040A9F73B
:100AF0009E3F510580F00C94D4040C941F055F3F79
:100B0000E4F3983ED4F3869577956795B795F79576
:100B1000E7959F5FC1F7FE2B880F911D96958795EE
:100B200097F9089597FB072E16F4009407D077FDE8
:100B300009D00E94A60507FC05D03EF4909581954A
:100B40009F4F0895709561957F4F0895AA1BBB1B19
:100B500051E107C0AA1FBB1FA617B70710F0A61BBD
:100B6000B70B881F991F5A95A9F780959095BC01DE
:080B7000CD010895F894FFCFB8
:0E0B78006F12833B64203D200020636D00005F
:00000001FF
