:100000000C942A000C9478010C949F010C94C60166
:100010000C943C000C943C000C9450020C943C005A
:100020000C943C000C943C000C9429020C940202A9
:100030000C943C000C9477020C943C000C943C0013
:100040000C943C000C943C000C943C000C943C0040
:100050000C943C0011241FBECFE5D8E0DEBFCDBF1D
:1000600020E0A0E6B0E001C01D92AE36B207E1F795
:100070000E943E000C949E020C9400000E944300DB
:1000800080E090E00895CF93DF931F92CDB7DEB765
:1000900080E00E94ED0161E082E10E946200CE01F9
:1000A00001960E94F9018981813029F461E082E1A1
:1000B0000E94ED00F4CF8111F2CF60E082E10E9456
:1000C000ED00EDCF883000F561110EC04AB321E09C
:1000D00030E0B90102C0660F771F8A95E2F7CB01C5
:1000E000809584238ABB0895613009F075C04AB3B6
:1000F00021E030E0B90102C0660F771F8A95E2F770
:10010000CB01842B8ABB089598EF980F983000F5A7
:1001100061110EC047B321E030E0B90102C0660FA3
:10012000771F9A95E2F7CB018095842387BB0895CA
:10013000613009F051C047B321E030E0B90102C09D
:10014000660F771F9A95E2F7CB01842B87BB089542
:1001500090EF980F9830F8F461110EC044B321E08D
:1001600030E0B90102C0660F771F9A95E2F7CB0124
:100170008095842384BB0895613071F544B321E0F8
:1001800030E0B90102C0660F771F9A95E2F7CB0104
:10019000842B84BB089588518830F0F461110EC01F
:1001A00041B321E030E0B90102C0660F771F8A95A4
:1001B000E2F7CB018095842381BB0895613061F41F
:1001C00041B321E030E0B90102C0660F771F8A9584
:1001D000E2F7CB01842B81BB0895883000F56111D3
:1001E0000EC04BB321E030E0B90102C0660F771FAB
:1001F0008A95E2F7CB01809584238BBB089561300B
:1002000009F075C04BB321E030E0B90102C0660FC0
:10021000771F8A95E2F7CB01842B8BBB089598EF6B
:10022000980F983000F561110EC048B321E030E01E
:10023000B90102C0660F771F9A95E2F7CB0180954E
:10024000842388BB0895613009F051C048B321E090
:1002500030E0B90102C0660F771F9A95E2F7CB0133
:10026000842B88BB089590EF980F9830F8F46111B3
:100270000EC045B321E030E0B90102C0660F771F20
:100280009A95E2F7CB018095842385BB0895613070
:1002900071F545B321E030E0B90102C0660F771F68
:1002A0009A95E2F7CB01842B85BB0895885188305D
:1002B000F0F461110EC042B321E030E0B90102C098
:1002C000660F771F8A95E2F7CB018095842382BB66
:1002D0000895613061F442B321E030E0B90102C019
:1002E000660F771F8A95E2F7CB01842B82BB0895B6
:1002F0001F920F920FB60F9211242F933F934F939B
:100300005F936F937F938F939F93AF93BF93EF937D
:10031000FF93E0916400F09165000995FF91EF91E2
:10032000BF91AF919F918F917F916F915F914F910D
:100330003F912F910F900FBE0F901F9018951F9215
:100340000F920FB60F9211242F933F934F935F9309
:100350006F937F938F939F93AF93BF93EF93FF938D
:10036000E0916000F09161000995FF91EF91BF91DC
:10037000AF919F918F917F916F915F914F913F913D
:100380002F910F900FBE0F901F9018951F920F92F4
:100390000FB60F9211242F933F934F935F936F9358
:1003A0007F938F939F93AF93BF93EF93FF93E091CE
:1003B0006200F09163000995FF91EF91BF91AF91B9
:1003C0009F918F917F916F915F914F913F912F916D
:1003D0000F900FBE0F901F901895813021F0811162
:1003E00002C08AE082B986B7846086BF88E480B99B
:1003F000089524EC26BF06B607FEFDCF23B1FC010D
:10040000208308951F920F920FB60F9211242F93FD
:100410003F934F935F936F937F938F939F93AF938C
:10042000BF93EF93FF93E0916800F0916900099505
:10043000FF91EF91BF91AF919F918F917F916F91BC
:100440005F914F913F912F910F900FBE0F901F9092
:1004500018951F920F920FB60F9211242F933F936E
:100460004F935F936F937F938F939F93AF93BF93BC
:10047000EF93FF93E0916600F09167000995FF917B
:10048000EF91BF91AF919F918F917F916F915F910C
:100490004F913F912F910F900FBE0F901F90189585
:1004A0001F920F920FB60F9211242F933F934F93E9
:1004B0005F936F937F938F939F93AF93BF93EF93CC
:1004C000FF93E0916A00F0916B000995FF91EF9125
:1004D000BF91AF919F918F917F916F915F914F915C
:1004E0003F912F910F900FBE0F901F9018951F9264
:1004F0000F920FB60F9211242F933F934F935F9358
:100500006F937F938F939F93AF93BF93EF93FF93DB
:10051000E0916C00F0916D000995FF91EF91BF9112
:10052000AF919F918F917F916F915F914F913F918B
:100530002F910F900FBE0F901F901895F894FFCF3A
:00000001FF
