:100000000C942A000C94DE000C9405010C942C0135
:100010000C943C000C943C000C94D5010C943C00D6
:100020000C943C000C943C000C94AE010C948701A1
:100030000C943C000C943C000C943C000C943C0050
:100040000C943C000C943C000C943C000C943C0040
:100050000C943C0011241FBECFE5D8E0DEBFCDBF1D
:1000600020E0A0E6B0E001C01D92AC36B207E1F797
:100070000E943E000C94FC010C9400000E9443007E
:1000800080E090E0089580E00E94530181E00E94AA
:1000900082012FEF83ED90E3215080409040E1F703
:1000A00000C00000F3CF883000F561110EC04AB3E4
:1000B00021E030E0B90102C0660F771F8A95E2F7B0
:1000C000CB01809584238ABB0895613009F075C007
:1000D0004AB321E030E0B90102C0660F771F8A956C
:1000E000E2F7CB01842B8ABB089598EF980F9830E4
:1000F00000F561110EC047B321E030E0B90102C044
:10010000660F771F9A95E2F7CB018095842387BB12
:100110000895613009F051C047B321E030E0B901E2
:1001200002C0660F771F9A95E2F7CB01842B87BB3D
:10013000089590EF980F9830F8F461110EC044B311
:1001400021E030E0B90102C0660F771F9A95E2F70F
:10015000CB018095842384BB0895613071F544B34D
:1001600021E030E0B90102C0660F771F9A95E2F7EF
:10017000CB01842B84BB089588518830F0F4611141
:100180000EC041B321E030E0B90102C0660F771F15
:100190008A95E2F7CB018095842381BB0895613075
:1001A00061F441B321E030E0B90102C0660F771F6E
:1001B0008A95E2F7CB01842B81BB08951F920F92A1
:1001C0000FB60F9211242F933F934F935F936F932A
:1001D0007F938F939F93AF93BF93EF93FF93E091A0
:1001E0006400F09165000995FF91EF91BF91AF9187
:1001F0009F918F917F916F915F914F913F912F913F
:100200000F900FBE0F901F9018951F920F920FB670
:100210000F9211242F933F934F935F936F937F938C
:100220008F939F93AF93BF93EF93FF93E091600001
:10023000F09161000995FF91EF91BF91AF919F916E
:100240008F917F916F915F914F913F912F910F907F
:100250000FBE0F901F9018951F920F920FB60F921E
:1002600011242F933F934F935F936F937F938F93BB
:100270009F93AF93BF93EF93FF93E0916200F09150
:1002800063000995FF91EF91BF91AF919F918F917D
:100290007F916F915F914F913F912F910F900FBE82
:1002A0000F901F9018958130A1F48DB180618DB9A8
:1002B00061E08DE00E94530061E08FE00E945300F6
:1002C00060E08EE00E94530061E08CE00E945300E9
:1002D00015C0811113C08DB18F7E8DB960E08DE0A6
:1002E0000E94530060E08FE00E94530061E08EE0C6
:1002F0000E94530060E08CE00E9453008DB1806446
:100300008DB908958FB9779BFECF8FB108951F9255
:100310000F920FB60F9211242F933F934F935F9339
:100320006F937F938F939F93AF93BF93EF93FF93BD
:10033000E0916800F09169000995FF91EF91BF91FC
:10034000AF919F918F917F916F915F914F913F916D
:100350002F910F900FBE0F901F9018951F920F9224
:100360000FB60F9211242F933F934F935F936F9388
:100370007F938F939F93AF93BF93EF93FF93E091FE
:100380006600F09167000995FF91EF91BF91AF91E1
:100390009F918F917F916F915F914F913F912F919D
:1003A0000F900FBE0F901F9018951F920F920FB6CF
:1003B0000F9211242F933F934F935F936F937F93EB
:1003C0008F939F93AF93BF93EF93FF93E0916A0056
:1003D000F0916B000995FF91EF91BF91AF919F91C3
:1003E0008F917F916F915F914F913F912F910F90DE
:0C03F0000FBE0F901F901895F894FFCFDF
:00000001FF
